:10047200000101020303040405060607080809092E
:10045B0002340000052100000000000236000005F8
:06046B0026000000000065
:040420007F647E0077
:10042400EF1FAA0670011E4A600FE4FDEDC394FAA3
:0904340050EE000000000D80F301
:01043D00229C
:1001E200E4FDFFFEFCD2B70000C2B50000D2B600AB
:1001F20000C2B60000D2B6C2B70000C2B60000D23A
:10020200B6D2B70000C2B6D2B70000A2B7E43342FA
:1002120007D2B60000C2B60000EF25E0FFEE33FEC3
:10022200BD0706A2B7E43342070DBD08DEE4FDE4D4
:10023200A2B733D2B60000C2B60000C4333333547F
:10024200804204EDC394075004ECC313FC0DBD08B7
:0D025200DED2B5C2B6D2B7EFFEAD04EDFFAF
:01025F00227C
:10026000E4FDFFFEFCD2B40000C2B00000D2B10039
:1002700000C2B10000D2B1C2B40000C2B10000D2CD
:10028000B1D2B40000C2B1D2B40000A2B4E433428F
:1002900007D2B10000C2B10000EF25E0FFEE33FE4F
:1002A000BD0706A2B4E43342070DBD08DEE4FDE459
:1002B000A2B433D2B10000C2B10000C4333333540E
:1002C000804204EDC394075004ECC313FC0DBD0839
:0D02D000DED2B0C2B1D2B4EFFEAD04EDFF3E
:0102DD0022FE
:1002DE001201E28F34E534540FF525900472932405
:1002EE0030F521E535540FC454F0FFE53454F0FEDB
:1002FE00C4540F4FF52575F064842430F524E5259C
:10030E0075F0648485F022E52275F00A842430F5B8
:0E031E0023E52275F00A84E5F02430F5222252
:10032C001202608F36E536540FF52A90047293242E
:10033C0030F526E537540FC454F0FFE53654F0FE83
:10034C00C4540F4FF52A75F064842430F529E52A3E
:10035C0075F0648485F027E52775F00A842430F560
:0E036C0028E52775F00A84E5F02430F52722F5
:1000BA00E4F52EF52FF532F533F52BF52CC200C2F7
:1000CA0090C291C292C293D2AF758911D2A9758C8E
:1000DA00FE758A0C1202DE12032CE522252724A0C3
:1000EA00C313FF3395E0FEEF2430F53BE43EF53AC7
:1000FA00E5282523FFE433CF24D0F53DEF34FFF57F
:10010A003CC3E53D9431E53C648094804002800D17
:10011A00C3E53B9439E53A64809480400CD2A7B297
:10012A00871204201203BC80ABC3E53B9435E53A41
:10013A00648094804009C287C2A71204208095D2A5
:0C014A0087B2A712042012037A0200DE24
:10037A00D201E4F52BF52CF530753102F538E4F5A8
:10038A003912043EE52DB40110D3E52C9400E52B77
:10039A0064809480500312000E0539D3E5396480D5
:1003AA00948F40DD0538D3E5386480948740CFC206
:0203BA008C2293
:1003BC00C201E4F52BF52CF530753102F538E4F576
:1003CC003912043EE52DB40110D3E52C9400E52B35
:1003DC0064809480500312000E0539D3E539648093
:1003EC00948F40DD0538D3E5386480948740CFC2C4
:0203FC008C2251
:03000B000203FEEF
:1003FE00C0E0758CFE758A0C052FE52F7002052E58
:10040E00E52D700B752D01E52C152C7002152BD0DA
:02041E00E032CA
:0E043E00E4F52D758CFE758A0CD28C7F02FEC3
:0F044C00E4F52EF52FC3E52F9FE52E9E40F722F6
:06000E0085302B85312C2A
:10001400300009C290C291C292C29322E53270624A
:10002400E533B40800505B900032F82828730200CE
:100034004A0200500200560200600200660200708C
:1000440002007A02007ED290C291800AD290D291AC
:100054008004C290D291C292C2938026C290D2915F
:100064008004C290C291D292C2938016C290C2916F
:10007400D292D293800CC2908002D290C291C2924A
:10008400D2932001190533E53370020532D3940766
:10009400E53264809480401DE4F532F53322E53383
:1000A400153370021532C3E53264809480500675AE
:0600B40032007533072243
:03000000020156A4
:0C015600787FE4F6D8FD75813D02019D24
:100162000200BAE493A3F8E493A34003F68001F2F9
:1001720008DFF48029E493A3F85407240CC8C3339E
:10018200C4540F4420C8834004F456800146F6DF6D
:10019200E4800B010204081020408090045BE47E9E
:1001A200019360BCA3FF543F30E509541FFEE49362
:1001B200A360010ECF54C025E060A840B8E493A329
:1001C200FAE493A3F8E493A3C8C582C8CAC583CA54
:1001D200F0A3C8C582C8CAC583CADFE9DEE780BE0C
:01047100008A
:00000001FF
