:10010A00E4F50BF50CF50FF510F508F509C200C278
:10011A0090C291C292C293D2AF758911D2A9758C3D
:10012A00FE758A0CC2011200B4D28C7FC87E0012FE
:06013A000162C28C80F09E
:1000B400C201E4F508F509F50D750E02F511E4F534
:1000C40012E4F50A758CFE758A0CD28C7F02FE123E
:1000D4000162E50AB40116D3E5099400E5086480D9
:1000E40094805009850D08850E0912000E0512D35F
:1000F400E5126480948F40C90511D3E5116480949E
:060104008740BBC28C2203
:03000B00020140AF
:10014000C0E0758CFE758A0C050CE50C7002050B81
:10015000E50A700B750A01E509150970021508D04A
:02016000E0328B
:0F016200E4F50BF50CC3E50C9FE50B9E40F7226F
:10000E00300009C290C291C292C29322E50F706273
:10001E00E510B40800505B90002CF82828730200FD
:10002E004402004A02005002005A02006002006AB6
:10003E00020074020078D290C291800AD290D291BE
:10004E008004C290D291C292C2938026C290D29165
:10005E008004C290C291D292C2938016C290C29175
:10006E00D292D293800CC2908002D290C291C29250
:10007E00D2932001190510E5107002050FD39407D5
:10008E00E50F64809480401DE4F50FF51022E51015
:10009E0015107002150FC3E50F648094805006751D
:0600AE000F00751007228F
:0300000002017189
:0C017100787FE4F6D8FD75812002010AB9
:00000001FF
