:100818000001010203030404050606070808090984
:10077A0002340000052100000000000236000005D6
:10078A00260000000000C183C184C102C186C105E0
:07079A00013B000243005A7D
:1007FF00758911758D94E4F58BD2AFD2ABD28EF58E
:09080F003E75380CF539F53A226A
:0407C4007F647E00D0
:1007C800EF1FAA0670011E4A600FE4FDEDC394FAFC
:0907D80050EE000000000D80F35A
:0107E10022F5
:1003D500E4FDFFFEFCD2B70000C2B50000D2B600B6
:1003E50000C2B60000D2B6C2B70000C2B60000D245
:1003F500B6D2B70000C2B6D2B70000A2B7E4334206
:1004050007D2B60000C2B60000EF25E0FFEE33FECE
:10041500BD0706A2B7E43342070DBD08DEE4FDE4DF
:10042500A2B733D2B60000C2B60000C4333333548A
:10043500804204EDC394075004ECC313FC0DBD08C2
:0D044500DED2B5C2B6D2B7EFFEAD04EDFFBA
:010452002287
:10045300E4FDFFFEFCD2B40000C2940000D295007C
:1004630000C2950000D295C2B40000C2950000D22C
:1004730095D2B40000C295D2B40000A2B4E43342D2
:1004830007D2950000C2950000EF25E0FFEE33FE92
:10049300BD0706A2B4E43342070DBD08DEE4FDE464
:1004A300A2B433D2950000C2950000C43333335451
:1004B300804204EDC394075004ECC313FC0DBD0844
:0D04C300DED294C295D2B4EFFEAD04EDFF81
:0104D0002209
:1004D100B2867F327E001207C8B2867F327E00125A
:1004E10007C8B2861203D58F34E534540FF5259031
:1004F1000818932430F521E535540FC454F0FFE575
:100501003454F0FEC4540F4FF52575F06484243043
:10051100F524E52575F0648485F022E52275F00A5D
:10052100842430F523E52275F00A84E5F02430F5C2
:02053100222284
:10053300B2857F327E001207C8B2857F327E0012F9
:1005430007C8B2851204538F36E536540FF52A9047
:100553000818932430F526E537540FC454F0FFE50B
:100563003654F0FEC4540F4FF52A75F064842430DA
:10057300F529E52A75F0648485F027E52775F00AE7
:10058300842430F528E52775F00A84E5F02430F556
:0205930027221D
:10059500D297D2B21207FFE4F52EF52FF532F533D7
:1005A500F52BF52CC200C290C291C292C293D28A99
:1005B500D2BAD2AAD2AF758911D2A9758CFE758A25
:1005C5000CD2A0D2A1D2A2D2A3E538D3940740067B
:1005D500E538941340071205F4D2058002C20520C0
:0F05E500020820050512019E80DF12001E80DA39
:10019E00D297D2B21204D1120533C3E544945AE574
:1001AE0043648094804006C280D2818017D3E54498
:1001BE009400E543648094805006D280C28180040E
:1001CE00D280D281E522252724A0C313FF3395E0E8
:1001DE00FEEF2430F540E43EF53FE5282523FFE40D
:1001EE0033CF24D0F542EF34FFF541C3E5429431CD
:1001FE00E54164809480401BE5441544700215432C
:10020E00C200D3E5449400E54364809480502AD222
:10021E00008026C3E5409439E53F648094804025F4
:10022E00E544154470021543C200D3E5449400E53D
:10023E0043648094805002D200D2A7B2871207C4C2
:10024E001206C28037C3E5409435E53F6480948042
:10025E004009C287C2A71207C480210544E5447035
:10026E00020543C200C3945AE54364809480400261
:10027E00D200D287B2A71207C412068020B204C2DF
:0F028E0097800530B202D2972002030201A2220C
:10001E00D297D2B2C200D2A0D2A1D2A2D2A3C3E5AD
:10002E0044945AE543648094804006C280D2818015
:10003E0017D3E5449400E543648094805006D28043
:10004E00C2818004D280D28120066A30A00B20A10A
:10005E000820A20520A302800C20A00F20A10C30A6
:10006E00A20920A306C203D204804830A00B30A1FF
:10007E000830A20520A302803620A00B30A1083044
:10008E00A20520A302802830A00B30A10820A205D3
:10009E0020A302801A20A00B30A10820A20520A3C5
:1000AE0002800C20A00D20A10A20A20720A304C2CA
:1000BE0004D203D20620032D30A02A20A12720A28D
:1000CE002420A321D3E5449400E54364809480501A
:1000DE0004D2038002C2031206C2E54415447032F4
:1000EE00154302018820032C20A02920A12630A22E
:1000FE002320A320C3E544945AE5436480948040B2
:10010E0004D2038002C2031206800544E544700245
:10011E000543806620041330A01030A10D30A20AD2
:10012E0020A30712063BD204805020041320A010F7
:10013E0030A10D30A20A20A3071205F4D204803A92
:10014E0020041B30A01830A11520A21220A30F12DC
:10015E0006C2E544154470021543D204801C2004E7
:10016E001920A01630A11320A21020A30D12068074
:10017E000544E54470020543D20420B204C29780C0
:10018E000530B202D2971207C430020302002422B5
:03001300020704DD
:10070400C0E0C0D075D000C002C005C006C007124A
:1007140007C4C20620A00D20A10A20A20730A3040A
:10072400C202800E20A00B20A10830A20530A30233
:0F073400D202D007D006D005D002D0D0D0E0320C
:1005F400D201D3E544945AE543648094805037D2C1
:10060400011206800544E54470020543C3945AE58B
:1006140043648094804006C280D28180D5D3E5446F
:100624009400E543648094805006D280C28180C2E5
:07063400D280D28180BC22BC
:10063B00C201C3E543648094804039C2011206C2F3
:10064B00E544154470021543C3E544945AE54364ED
:10065B008094804006C280D28180D7D3E544940039
:10066B00E543648094805006D280C28180C4D280DE
:05067B00D28180BE22C7
:10068000D201E4F52BF52CF530753102F53CE4F59B
:100690003D1207E2E52DB40110D3E52C9400E52BC3
:1006A00064809480500312029D053DD3E53D648033
:1006B000948F40DD053CD3E53C6480948F40CFC2ED
:0206C0008C228A
:1006C200C201E4F52BF52CF530753102F53CE4F569
:1006D2003D1207E2E52DB40110D3E52C9400E52B81
:1006E20064809480500312029D053DD3E53D6480F1
:1006F200948F40DD053CD3E53C6480948F40CFC2AB
:020702008C2247
:03001B0002074396
:10074300C0E0C0D0758D94758B00053EE53EB414B2
:1007530021053A753E00E53AB43C170539753A0070
:10076300E539B43C0D0538753900E538B41803751F
:070773003800D0D0D0E032C5
:03000B000207A247
:1007A200C0E0758CFE758A0C052FE52F7002052EB0
:1007B200E52D700B752D01E52C152C7002152BD033
:0207C200E03223
:0E07E200E4F52D758CFE758A0CD28C7F02FE1C
:0F07F000E4F52EF52FC3E52F9FE52E9E40F7224F
:06029D0085302B85312C99
:1002A300300009C290C291C292C29322E5327062B9
:1002B300E533B40800505B9002C1F82828730202AA
:1002C300D90202DF0202E50202EF0202F50202FF97
:1002D30002030902030DD290C291800AD290D291F7
:1002E3008004C290D291C292C2938026C290D291CE
:1002F3008004C290C291D292C2938016C290C291DE
:10030300D292D293800CC2908002D290C291C292B8
:10031300D2932001190533E53370020532D39407D4
:10032300E53264809480401DE4F532F53322E533F1
:10033300153370021532C3E532648094805006751C
:06034300320075330722B1
:03000000020349AF
:0C034900787FE4F6D8FD75814402039033
:10035500020595E493A3F8E493A34003F68001F224
:1003650008DFF48029E493A3F85407240CC8C333A9
:10037500C4540F4420C8834004F456800146F6DF78
:10038500E4800B010204081020408090077AE47E87
:10039500019360BCA3FF543F30E509541FFEE4936D
:1003A500A360010ECF54C025E060A840B8E493A334
:1003B500FAE493A3F8E493A3C8C582C8CAC583CA5F
:1003C500F0A3C8C582C8CAC583CADFE9DEE780BE17
:0107A1000057
:00000001FF
