:100BAA0053797374656D2E73657475700054696D2D
:100BBA0065004461746500436C6F636B004C616D42
:100BCA0070005265736574004578697400536574E2
:100BDA000073656300436C6F636B536574004F4E1B
:050BEA00004F4646002B
:090E6700070D001019290304060F
:10082700D293C296120D66120B5F758901758C3CC7
:10083700758AB0D2AFD28CD2A9209029120E24206B
:100847009023120E47C2967FC1120E5CEFC4540F5D
:1008570075F00AA4FFC0077FC1120E5CEF540FFEAC
:10086700D0E02EF509D201120D98200126120E476D
:10087700C2961209687FC1120E5CEFC4540F75F05F
:100887000AA4FFC0077FC1120E5CEF540FFED0E031
:100897002EF509209606E5097002D2967FC3120E3F
:1008A7005CBF012B7FC5120E5CC0077F85120E5CF3
:1008B700AE07D007EEB507177FC7120E5CC0077FDC
:1008C70083120E5CAE07D007EEB50703120E0312B4
:0508D70004EC020840E2
:050E4200C200E4F50A06
:080E4700C293120E24D2932283
:100E030020000DC293120E24120E24120E24D2932C
:010E130022BC
:100D9800209213120E2420920D3092FD120E47C29B
:070DA80000E4F50AC201227C
:10096800750801E5086078120BEF209117120E2424
:1009780020910E120E42AF081508EFB40103750856
:10098800063091FD209017120E2420900E120E4270
:10099800AF080508EFB406037508013090FDD201D1
:1009A800120D982001BD120E47E50824FE601514AB
:1009B800601714601914601B14601E240570A412BB
:1009C8000CB1809F120CD8809A120C288095120CBA
:1009D800FF8090120DF002096BE4F50802096B2202
:100CB100750B06E508B4011ED201120D9820010E34
:100CC100120E47AF0B050BEFB40903750B061209A2
:070CD100E8120BEF80DD22A9
:100CD800750B01E508B4021ED201120D9820010E11
:100CE800120E47AF0B050BEFB40503750B01120984
:070CF800E8120BEF80DD2282
:100C2800750B0CE5086403702ED201120D98200193
:100C38001E120E477FC3120E5CEF540F7006F50BA1
:100C48000508800BAF0B050BEFB40F03750B0C12E7
:080C580009E8120BEF80CC2229
:100CFF00750B0AE508B4041ED201120D9820010EDF
:100D0F00120E47AF0B050BEFB40B03750B0A12094D
:070D1F00E8120BEF80DD225A
:100DF0007B007A00790D120C607DA57F90120E3376
:030E0000050822C0
:1009E800209131120E24209128120E42E50B640941
:1009F8006011E50B6405600BE50B640B6005E50B06
:100A0800B40F070508E4F50B80077D01AF0B12074B
:100A18003A3091FD209031120E24209028120E4277
:100A2800E50B64096011E50B6405600BE50B640BCD
:100A38006005E50BB40F070508E4F50B8007E4FD36
:090A4800AF0B12073A3090FD22B9
:03000B00020C895B
:100C8900C0E0C0D075D000C007758C3C758AB0AF84
:100C99000A050AEFB40A0A750A00B2002000021513
:080CA90009D007D0D0D0E032E1
:02073A008D141C
:10073C00BF010975158C751763E4F518BF020975AF
:10074C00158875170C751801BF0309751586751773
:10075C001F751801BF040975158A751707751801DF
:10076C00BF0609751584751717E4F518BF070975C9
:10077C00158275173BE4F518BF08097515807517B8
:10078C003BE4F518BF0A097515C075173BE4F5185D
:10079C00BF0C097515C2751701E4F518BF0D097565
:1007AC0015C4751717E4F518BF0E097515C675171E
:1007BC003BE4F518E51504FF120E5CEFC4540F75FD
:1007CC00F00AA4FFC007E51504FF120E5CEF540FEE
:1007DC00FED0E02EF516E5147004051680021516F1
:1007EC00E516D395174003851816E516C3951850D2
:1007FC0003851716E4FD7F8E120E33E51675F00A8D
:10080C0084C454F0FFE51675F00A84EF25F0FDAFB3
:0B081C0015120E337D807F8E020E331C
:100BEF00E508B407005031900BFDF8282873020C6C
:100BFF0012020C15020C18020C1B020C1E020C2107
:100C0F00020C240204EC0201DE02036B02000E024E
:090C1F000649020A51120AB8222A
:1004EC00E4FD120B167B20E4FD7F0D120D2C7B20FE
:1004FC00E4FD7F04120D2C7B207D017F04120D2C5A
:10050C007B207D017F0F120D2C7B2F120D287B2F52
:10051C007D017F0A120D2C7B2F7D017F0D120D2C7E
:10052C007A0B7BBC7D01E4FF120B1B30000D7B3A78
:10053C00E4FD7F07120D2C7B3A800B7B20E4FD7FC2
:10054C0007120D2C7B20E4FD7F0A120D2C7F8D12DF
:10055C000E5CEFC4540F2430FB7D017F05120D2C73
:10056C007F8D120E5CEF540F2430FB7D017F061241
:10057C000D2C7F89120E5CEFC4540F2430FB7D01CF
:10058C007F08120D2C7F89120E5CEF540F2430FB68
:10059C007D017F09120D2C7F87120E5CEFC4540F66
:1005AC002430FB7D017F0B120D2C7F87120E5CEF2C
:1005BC00540F2430FB7D017F0C120D2C7F8B120EFF
:1005CC005CEF540F2430FB7D017F0E120D2C7F85C8
:1005DC00120E5CEFC4540F2430FBE4FD7F05120DAA
:1005EC002C7F85120E5CEF540F2430FBE4FD7F064C
:1005FC00120D2C7F83120E5CEFC4540F2430FBE4DD
:10060C00FD7F08120D2C7F83120E5CEF540F2430EB
:10061C00FBE4FD7F09120D2C7F81120E5CEFC4549C
:10062C000F2430FBE4FD7F0B120D2C7F81120E5C2E
:0D063C00EF540F2430FBE4FD7F0C020D2C69
:1001DE007B20E4FDFF120D2C7B20E4FD7F01120D30
:1001EE002C7A0B7BAAE4FD7F02120B1BE50B7063CE
:1001FE007B207D017F09120D2C7B207D017F041257
:10020E000D2C7B207D017F0F120D2C7A0B7BBC7D7C
:10021E00017F05120B1B7A0B7BC17D017F0A120B2E
:10022E001B3000247B207D01E4FF120D2C7B207DF2
:10023E00017F01120D2C7B207D017F02120D2C7B84
:10024E00207D017F0302035C7A0B7BB77D01E4FF07
:10025E000203677B3A7D017F03120D2C7B3A7D01F1
:10026E007F06120D2C7B207D017F09120D2C7B2029
:10027E007D017F0A120D2C7B207D01E4FF120D2CD7
:10028E00E50BB4061030000D7B207D017F01120DB1
:10029E002C7B20801E7F85120E5CEFC4540F243001
:1002AE00FB7D017F01120D2C7F85120E5CEF540F2A
:1002BE002430FB7D017F02120D2CE50BB4071030AC
:1002CE00000D7B207D017F04120D2C7B20801E7F74
:1002DE0083120E5CEFC4540F2430FB7D017F041299
:1002EE000D2C7F83120E5CEF540F2430FB7D017FAB
:1002FE0005120D2CE50BB4080A300007120D267BF3
:10030E0020801A7F81120E5CEFC4540F2430FB1232
:10031E000D287F81120E5CEF540F2430FB7D017F80
:10032E0008120D2CE50B640970273000247B207D0C
:10033E00017F0B120D2C7B207D017F0C120D2C7B6F
:10034E00207D017F0D120D2C7B207D017F0E020D75
:0D035E002C7A0B7BD27D017F0B120B1B2232
:10036B00E50B70557B207D017F09120D2C7B207DC9
:10037B00017F04120D2C7B207D017F0F120D2C129F
:10038B000B137A0B7BC17D017F0A120B1B30001EF6
:10039B007B207D017F05120D2C7B207D017F0612BA
:1003AB000D2C120D267B207D017F080204DD7A0BBC
:1003BB007BBC7D017F050204E87B207D01E4FF12FD
:1003CB000D2C7B207D017F0B120D2C7B2F7D017F54
:1003DB0003120D2C7B2F7D017F06120D2C7B2F7DA5
:1003EB00017F09120D2CE50BB4011030000D7B20A1
:1003FB007D017F01120D2C7B20801E7F8D120E5CE8
:10040B00EFC4540F2430FB7D017F01120D2C7F8D27
:10041B00120E5CEF540F2430FB7D017F02120D2C6A
:10042B00E50BB4021030000D7B207D017F04120D13
:10043B002C7B20801E7F89120E5CEFC4540F24305E
:10044B00FB7D017F04120D2C7F89120E5CEF540F84
:10045B002430FB7D017F05120D2CE50BB4030A3014
:10046B000007120D267B20801A7F87120E5CEFC4CB
:10047B00540F2430FB120D287F87120E5CEF540FA4
:10048B002430FB7D017F08120D2CE50BB4040730E3
:10049B0000047B20800B7F8B120E5CEF540F2430FB
:1004AB00FB7D017F0A120D2CE50B640570273000D4
:1004BB00247B207D017F0C120D2C7B207D017F0D79
:1004CB00120D2C7B207D017F0E120D2C7B207D01CC
:1004DB007F0F020D2C7A0B7BD27D017F0C120B1B35
:0104EB0022EE
:10000E00E50B70607B207D017F09120D2C7B207D1E
:10001E00017F04120D2C7B207D017F0F120D2C12FF
:10002E000B137A0B7BBC7D017F05120B1B30002D51
:10003E007B207D017F0A120D2C7B207D017F0B1210
:10004E000D2C7B207D017F0C120D2C7B207D017FE2
:10005E000D120D2C7B207D017F0E0201CF7A0B7BC2
:10006E00C1020108E50B640C600302010F7A0B7BE1
:10007E00DF7D01FF120B1B7B207D017F08120D2CF3
:10008E007B207D017F0D120D2C7B207D017F0E12BA
:10009E000D2C3000247B207D017F0A120D2C7B203D
:1000AE007D017F0B120D2C7B207D017F0C120D2C00
:1000BE007B207D017F0D0201CF7FC3120E5CEF54BA
:1000CE000F70067A0B7BEB80317B207D017F09124E
:1000DE000D2C7B207D017F0C120D2C7B207D017F52
:1000EE000D120D2C7B207D017F0E120D2C7B207DA1
:1000FE00017F0F120D2C7A0B7BE87D017F0A020126
:10010E00DA7A0B7BC17D01E4FF120B1B7B3A7D017A
:10011E007F08120D2C7B207D017F05120D2C7B207C
:10012E007D017F0B120D2CE50BB40D1030000D7BF5
:10013E00207D017F06120D2C7B20801E7FC5120EA6
:10014E005CEFC4540F2430FB7D017F06120D2C7F13
:10015E00C5120E5CEF540F2430FB120D28E50BB4C4
:10016E000E1030000D7B207D017F09120D2C7B209F
:10017E00801E7FC7120E5CEFC4540F2430FB7D012E
:10018E007F09120D2C7FC7120E5CEF540F2430FB2B
:10019E007D017F0A120D2CE50B640F7027300024B1
:1001AE007B207D017F0C120D2C7B207D017F0D129B
:1001BE000D2C7B207D017F0E120D2C7B207D017F6F
:1001CE000F020D2C7A0B7BD27D017F0C120B1B22A2
:10064900E50B70637B207D017F0A120D2C7B207DD9
:10065900017F0B120D2C7B207D017F04120D2C7A5A
:100669000B7BCC7D017F05120B1B7A0B7BD27D01A5
:100679007F0C120B1B3000247B207D01E4FF120D3F
:100689002C7B207D017F01120D2C7B207D017F02B7
:10069900120D2C7B207D017F030207367A0B7BC765
:1006A9007D01E4FF020B1B7A0B7BC77D01E4FF127E
:1006B9000B1B7A0B7BD77D017F04120B1B7A0B7BFB
:1006C900DB7D017F09120B1B7A0B7BD27D017F0C2D
:1006D900120B1BE50BB40A0A300007120D267B200A
:1006E900801A7FC1120E5CEFC4540F2430FB120D27
:1006F900287FC1120E5CEF540F2430FB7D017F0867
:10070900120D2CE50B640B70273000247B207D0132
:100719007F0C120D2C7B207D017F0D120D2C7B206F
:100729007D017F0E120D2C7B207D017F0F120D2C78
:01073900229D
:100A51007B207D017F04120D2C7B207D017F0A12FA
:100A61000D2C7B207D017F0B120D2C7A0B7BC77D1A
:100A710001E4FF120B1B7A0B7BD27D017F0C120B61
:100A81001B3000277B207D017F05120D2C7B207DF3
:100A9100017F06120D2C120D267B207D017F08128D
:100AA1000D2C7B207D017F09020D2C7A0B7BCC7DE7
:070AB100017F05120B1B225F
:100AB8007B207D017F0A120D2C7B207D017F0B128C
:100AC8000D2C7A0B7BC77D01E4FF120B1B7A0B7B85
:100AD800CC7D017F05120B1B3000247B207D017F1C
:100AE8000C120D2C7B207D017F0D120D2C7B207D9F
:100AF800017F0E120D2C7B207D017F0F020D2C7AB9
:0B0B08000B7BD27D017F0C120B1B2227
:100DAF008F1B120E4FEF70FA851B80D2A2C2A3C207
:060DBF00A4C2A4D2A4228C
:040D48007D017C00AD
:100D4C008F1BED4C6006120E4FEF70FA851B80C2A4
:0A0D5C00A2C2A3C2A4C2A4D2A42222
:0D0E4F00C2A2D2A3C2A4C2A4D2A4AF80222A
:100B5F00E4F580FDFC7F38120D4C120E24E4FDFCF1
:100B6F007F38120D4C120E24E4FDFC7F38120D4C11
:100B7F00120E247F38120D487F08120D487D017C1C
:100B8F00007F01120D4C7D017C007F06120D4C7D04
:0B0B9F00017C007F0C120D4C020E24A4
:060D26007B207D017F0728
:100D2C008B1A53050153070FED600343074043072C
:0C0D3C0080E4FDFC120D4CAF1A020DAF5C
:080B13007D01E47A0B7BB7FFC2
:080B1B008F148D158A168B174B
:100B2300A9177BFF120DDB8F1853150153140FE523
:100B330014D3940F5025E4F519E519C39518501BE8
:100B4300E5172519F582E43516F583E493FBAD1516
:0B0B5300AF14120D2C0514051980DEF4
:010B5E002274
:0E0E24007FB07E15EF1FAC0670011E4C70F6FD
:010E3200229D
:100D66007D05AC051DEC60107E1C7F65EF1FAA0695
:080D760070011E4A60EC80F4DC
:010D7E002252
:060DC500C2B2C297D2B2D7
:0F0DCB00EF7F08A2E092A7D297C297C313DFF47D
:010DDA0022F6
:0F0E14007F08C313A2A792E7D297C297DFF4FF1C
:010E230022AC
:0F0E3300AE05120DC5AF06120DCBD297C2B2227B
:0A0E5C00120DC5120E14D297C2B297
:010E66002269
:100C6000751480E4FD7F8E120E337C07120D7FFD1C
:100C7000AF14120E33740129F9E43AFA051405147D
:090C8000DCEA7D807F8E020E3358
:030000000208DC17
:0C08DC00787FE4F6D8FD75812002092326
:100D7F00BB010689828A83E0225002E722BBFE0272
:090D8F00E32289828A83E49322A5
:100DDB00E4FFFE120D7F600C0FEF70010E09E9703E
:050DEB00F20A80EF2276
:1008E800020827E493A3F8E493A34003F68001F2F7
:1008F80008DFF48029E493A3F85407240CC8C33311
:10090800C4540F4420C8834004F456800146F6DFDF
:10091800E4800B0102040810204080900E67E47EFA
:10092800019360BCA3FF543F30E509541FFEE493D4
:10093800A360010ECF54C025E060A840B8E493A39B
:10094800FAE493A3F8E493A3C8C582C8CAC583CAC6
:10095800F0A3C8C582C8CAC583CADFE9DEE780BE7E
:010E70000081
:00000001FF
