:10001600200009000A00506F736974696F6E3A6DAB
:100026006F64656C312E002057454E44553A2020AA
:1000360020202E20204320002044533138423230E5
:100046002020455252305220002020504C4541532A
:100056004520434845434B202000506F736974691F
:100066006F6E3A6D6F64656C322E00506F736974F3
:10007600696F6E3A6D6F64656C332E00506F7369ED
:1000860074696F6E3A6D6F64656C342E002048613A
:100096007070792065766572796461792000202018
:1000A60020204F70656E20555020202020200020F3
:1000B6002020436C6F736520446F776E20202000EC
:1000C600202020536C6F776C7920557020202020DB
:1000D60000202020536C6F776C7920446F776E2058
:1000E6002000202057726F6E6720436F6D6D616E22
:1000F600642000202053656C6620436F6E74726F17
:100106006C20200020202020204D6F766520557021
:100116002020202000202020204D6F766520446F6F
:10012600776E2020200020204E6F772C7365742078
:100136007A65726F202000416C6C6F7753656C6630
:10014600636F6E74726F6C004E6F2053656C662021
:10015600636F6E74726F6C0020206C6F6164696EE1
:10016600672E2E2E2E2E2E2000202053656E6469BB
:100176006E672E2E2E2E2E2E2000202053746F708A
:100186002053656E64696E672E00202045455052E7
:100196004F4D20524541445920200020207265735E
:1001A600746172742E2E2E2E2E2E00434C4F434B0E
:1001B6002100303132333435363738393A200001B0
:1001C60001020303040405060607080809090C12C0
:0601D600120C0000000005
:100CDB00013600013B00C10101400002412000012F
:100CEB00430004450000000002222000C100013C2B
:0C0CFB0000023D00000565000000000044
:040E5F007F057E008D
:100E6300EF1FAA0670011E4A600FE4FDEDC394FA5A
:090E730050EE000000000D80F3B8
:010E7C002253
:100F2E00C2A2D2A3D2A400000000E580339203C275
:030F3E00A4A20367
:010F4100228D
:070DF9007E00120E637F0172
:100E0000120F2E40FBC2A2C2A3C2A400008F80001A
:0C0E1000000000D2A400000000C2A422D8
:030E9B00EF93FFD3
:100E9E00120F2E40FBD2A2C2A3C2A48F800000006C
:0A0EAE0000D2A400000000C2A4223C
:100BEA007F0F120DF97F38120E00120E5F7F381236
:100BFA000E00120E5F7F38120E00120E5F7F0C126B
:100C0A000E00120E5F7F06120E001F120DF97F05ED
:050C1A007E00020E63E4
:080F6500D291C292C2957F40B7
:070F6D00EF4480FF020E00BB
:100F04007F40120E00E4FEEE9001D493FF120E9E79
:040F14000EBE08F312
:010F180022B6
:060F5500D2947F087E002B
:0A0F5B00EF1F70011E144E70F72204
:100E1C00120F55C2947F5A7E00120F5B120F55A20F
:100E2C009492027F647E00120F5BD294A202E4FEC5
:030E3C0033FF225F
:100E3F00E4FC7D08C294ECC313FCD29430940343BA
:0F0E4F0004807F047E00120F5BDDE9AF047E009C
:010E5E002271
:020EB800AD0784
:100EBA007B08C294ED1392947F057E00120F5BD2D9
:070ECA0094EDC313FDDBEB07
:010ED10022FE
:100D8B00120E1C7FCC120EB87F44120EB8120E1C22
:100D9B007FCC120EB87FBE120EB8120E3F8F3D12D3
:050DAB000E3F8F3E2207
:1008FD00E53D540FF5699001C4932430F565E53E4F
:10090D00540FC454F0FFE53D54F0FEC4540F4FF5A1
:10091D006975F064842430F568E56975F064848543
:10092D00F066E56675F00A842430F567E56675F0C6
:10093D000A84E5F02430F566E568B4300B7568205F
:10094D00E567B430037567207F48120F6DAF6812ED
:10095D000E9E7F49120F6DAF67120E9E7F4A120FCA
:10096D006DAF66120E9E7F4C120F6DAF65020E9E1F
:100EEC00E4FD7F3C7E00120F5BB2930DBD64F3D228
:080EFC00937F407E9C020F5B16
:100B0000120BEAE4FF120F6DE4FEEE90001C93FF5F
:100B10006006120E9E0E80F27F40120F6DE4FEEE14
:100B200090002D93FF6006120E9E0E80F2120F04AD
:0D0B3000120E5F7F4D120F6DE4FF020E9E4E
:100C5300120BEAE4FF120F6DE4FEEE90003E93FFE9
:100C63006006120E9E0E80F27F40120F6DE4FEEEC0
:0D0C730090004F93FF6006120E9E0E80F25F
:010C80002251
:100C1F00E56475F00A8485F05CE56475F00A84F587
:100C2F005DE55275F00A8485F05FE55275F00A8430
:100C3F00F560E54475F00A8485F062E54475F00AC5
:040C4F0084F56322A3
:100AC000120E00AF63EF9001B893FF120E9EAF625B
:100AD000120E9BAF61120E9BAF60EF93FF120E9E42
:100AE000AF5FEF93FF120E9EAF5EEF93FF120E9E6D
:100AF000AF5DEF93FF120E9EAF5CEF93FF020E9E71
:10036300E4F540D2A0D2A1D2A5D2A6D2B0D2B1D2C6
:10037300B4D2B5D2B6D2B7D297D2A730B04E30B13D
:100383004B30B44830B54530A04230A13F30A53C96
:1003930030A63930B63630B73330973030A72D7F9B
:1003A30005FE120E6330B02430B12130B41E30B5D7
:1003B3001B30A01830A11530A51230A60F30B60C93
:1003C30030B70930970630A703E4F54020B00C128C
:1003D3000E5F20B00375400130B0FD20B10C120E4A
:1003E3005F20B10375400230B1FD20B40C120E5FE3
:1003F30020B40375400330B4FD20B50C120E5F200A
:10040300B50375400430B5FD20A00C120E5F20A08B
:100413000375400530A0FD20A10C120E5F20A1033F
:1004230075400630A1FD20A50C120E5F20A50375B3
:10043300400730A5FD20A60C120E5F20A6037540D1
:100443000830A6FD20B60C120E5F20B603754009D6
:1004530030B6FD20B70C120E5F20B70375400A308B
:10046300B7FD20970C120E5F20970375400B309752
:10047300FD20A70C120E5F20A70375400C30A7FDCB
:03048300AF402265
:10048600E4F540D2A0D2A1D2A5D2A6D2B0C2B1D2B2
:10049600B4D2B5D2B6D2B7D297D2A730B04830B41C
:1004A6004530B54230A03F30A13C30A53930A636A4
:1004B60030B63330B73030972D30A72A7F05FE127D
:1004C6000E6330B02130B41E30B51B30A01830A1F9
:1004D6001530A51230A60F30B60C30B70930970686
:1004E60030A703E4F54020B00C120E5F20B0037570
:1004F600400130B0FD20B40C120E5F20B4037540ED
:100506000330B4FD20B50C120E5F20B50375400410
:1005160030B5FD20A00C120E5F20A00375400530FB
:10052600A0FD20A10C120E5F20A10375400630A18C
:10053600FD20A50C120E5F20A50375400730A5FD12
:1005460020A60C120E5F20A60375400830A6FD20DB
:10055600B60C120E5F20B60375400930B6FD20B703
:100566000C120E5F20B70375400A30B7FD20970CBA
:10057600120E5F20970375400B3097FD20A70C12D3
:0E0586000E5F20A70375400C30A7FDAF40228A
:10067000120486AE07EE24FA60331460411460540D
:10068000240360030207112001137521C1C2AF7F4B
:10069000C1120E007F0F120E00D20180747FC012B3
:1006A0000E007F0C120E00C201D2AF8064300161D7
:1006B000E521B4C1057521C7805274FD800F30015A
:1006C00050E521B4C7057521C1804174032521F58A
:1006D00021FF803A30013AE521B4C1020544E544E6
:1006E000B41803E4F544E521B4C4020552E552B45C
:1006F0003C03E4F552E521B4C7020564E564B43C6B
:1007000003E4F564120C1F7FC0120AC0AF21120E61
:1007100000EE600DE59054F064F060057590F08097
:01072000F3E5
:0107210022B5
:100B7900E4FF120F6DE4FEEE90001C93FF60061275
:100B89000E9E0E80F27F40120F6DE4FEEE90002D56
:100B990093FF6006120E9E0E80F2120F04120E5F72
:0A0BA9007F4D120F6DE4FF020E9E57
:100C8100E4FEFF120F6DEE90006093FF6006120EFE
:100C91009E0E80F27FC9120E00E4FEEE9001B19328
:0D0CA100FF120E9E0EBE06F37FC0020E0075
:100DB000758921758C4CE4F58AD28AD2BAD2AAD22E
:100DC000AFD2A9D28CF52D75440CF552F564755E41
:050DD0000A75610A2212
:100A7A00C2B1D2A0D2B2120C81120670200128E5AE
:100A8A002DC3940A5008755E0A75610A8006755E60
:100A9A000B75610BE52D7005120C1F8005E52DB451
:100AAA000A057FC0120AC0E5365403FF60076402D4
:060ABA006003BF03C4222B
:050F74007FFA00DFFD23
:010F79002255
:10097D00120B79C2A0D2B2D2B1120D8B1208FDE5C5
:10098D0067C3943340257537C8B293120F7415376A
:10099D00E537D3940050F27537C8B293120F741225
:1009AD000F741537E537D3940050EF120722120755
:1009BD00CAE5365403FF6401600DEF64026008EF71
:1009CD00640360033002B2120C53120E1C120EECB3
:0409DD002002F722DB
:100D3500E4FF120F6DE4FEEE90007193FF60061262
:100D45000E9E0E80F27F40120F6DE4FEEE90009332
:0A0D550093FF6006120E9E0E80F25E
:010D5F002271
:1001DC00C2B2D2B1D2A0120D357FE87E03120E63EB
:1001EC001203638F38C296E53870187F40120F6D7A
:1001FC00E4FCEC9000F993FF7003020346120E9E90
:10020C000C80EFE5386401701CD290D291D292121E
:10021C000F69E4FCEC9000A493FF700302034612F8
:10022C000E9E0C80EFE5386402701CC290D291D205
:10023C0092120F69E4FCEC9000B593FF700302037B
:10024C0046120E9E0C80EFE53864037018D29012A3
:10025C000F65E4FCEC9000C693FF7003020346129A
:10026C000E9E0C80EFE53864047018C290120F6576
:10027C00E4FCEC9000D793FF7003020346120E9E31
:10028C000C80EFE53864087020C290C291D292D2F3
:10029C00957F40120F6DE4FCEC90014E93FF7003C0
:1002AC00020346120E9E0C80EFE53864097017D2DB
:1002BC0090C291120F67E4FCEC90010A93FF607AF4
:1002CC00120E9E0C80F2E538640A7019C290C2912D
:1002DC00D292120F69E4FCEC90011B93FF605B124D
:1002EC000E9E0C80F2E538640B7017C290C291120E
:1002FC000F67E4FCEC90012C93FF603E120E9E0CF9
:10030C0080F2E538640C701DC290C291C292D295F5
:10031C007F40120F6DE4FCEC90013D93FF601B12CB
:10032C000E9E0C80F27F40120F6DE4FCEC9000E806
:10033C0093FF6006120E9E0C80F27FC87E00120E98
:10034C0063D296E5365403FF6401600AEF600764DC
:06035C000360030201EC46
:010362002278
:100ED200E4F5E275E5018E398F3A8539E3853AE426
:0A0EE20075E64675E6B900AFE2229E
:070E7D00F8E6FDAF42AE41B3
:100E840075E5028E398F3A8539E3853AE48DE2754A
:070E9400E64675E6B90022F5
:100F190075E5038E398F3A8539E3853AE475E646F6
:050F290075E6B900228D
:100DD500754120754200E4F548F547F546F545753A
:080DE500E780FF7E20120F19C8
:0C0DED00E4F5E7F5E5F5E6F5E3F5E422B2
:060CAE007BFF7A007918BB
:060CB4008B088A09890A81
:100CBA00E4FFFEAB08AA09A90A8F828E83120D08E7
:100CCA00600EF5993099FDC2990FBF00010E80E3BD
:010CDA0022F7
:10072200E4F508F509F50AF50B120A2E75E780C300
:10073200E5099408E5089400504074542509120E06
:100742007D0542E542700205410509E50970020591
:1007520008E4FAF9F8E5482401F548EA3547F5478F
:10076200E93546F546E83545F545D3E54294FFE5DA
:1007720041942140BA120DD580B5C3E50B9408E52A
:100782000A94005040742E250B120E7D0542E5425C
:1007920070020541050BE50B7002050AE4FAF9F84F
:1007A200E5482401F548EA3547F547E93546F54677
:1007B200E83545F545D3E54294FFE541942140BA39
:0807C200120DD580B5020DED0A
:100A2E0085682E85672F85663075312E8565327502
:100A3E003360753443753520120C1FAF63120003FB
:100A4E008F54AF621200038F5575563AAF60120085
:100A5E00038F57AF5F1200038F5875593AAF5D126F
:0C0A6E0000038F5AAF5C1200038F5B2264
:06000300EF9001B893FF2D
:0100090022D4
:1007CA00E4FDFCD3E52394FFE5229421400675223B
:1007DA0020752300C3E52394FFE5229421400302F8
:1007EA00087075E780EDC394085018AF23AE221243
:1007FA000ED274492DF8A6070D0523E52370E605E8
:10080A002280E2E4F551FB7A007949120CB47BFFAD
:10081A007A007916120CB4ECC394085018AF23AEC0
:10082A0022120ED274242CF8A6070C0523E5237095
:10083A00E6052280E2E4F52CFB7A007924120CB456
:10084A00120CAE120CAE120CAE0543E54375F00362
:10085A0084E5F070097BFF7A00791A120CB4E5433B
:06086A00B40903E4F543AC
:010870002265
:100B3D00D297D2B6D2B7E4F53C20B60F7F05FE12A0
:100B4D000E6320B603753C0130B6FD20B70C120EB6
:100B5D005F20B703753C0230B7FD20970C120E5F76
:0C0B6D00209703753C033097FDAF3C223D
:100D6000E4FF120F6DE4FEEE90008293FF60061226
:100D70000E9E0E80F27F40120F6DE4FEEE90015E3B
:0A0D800093FF6006120E9E0E80F233
:010D8A002246
:10059400120D607F587E02120E63120B3D8F3FE5F1
:1005A4003F640170611207CA120B3D8F3FE53F643F
:1005B400037024752220F5237F40120F6DE4F55358
:1005C400E5539001A193FF6007120E9E055380F03E
:1005D4007F647E00120E637F40120F6DE4F553E5D5
:1005E4005390016F93FF6007120E9E055380F0E550
:1005F4003F64026063E5365403FF6401605AEF60B0
:1006040057BF02A18052E53F64027034120B3D8F44
:100614003F7F40120F6DE4F553E55390018093FF43
:100624006007120E9E055380F0E53F64016029E5E2
:10063400365403FF64016020EF601DBF02CE8018B2
:100644007F40120F6DE4F553E55390019093FF60E2
:1006540007120E9E055380F0E5365403FF640160D3
:0C0664000AEF60076402600302059E229A
:1009E100120B00120DB0759850758921D28E758D3C
:1009F100E8758BE8D299D28E75E7807F00120DE8F9
:100A0100E5365403700512097D80F5E5365403FC83
:100A1100BC0105120A7A80E8BC020DD290D291D2B3
:0D0A210092D2951201DC80D812059480D38A
:03000B00020BB332
:100BB300C0E0C0D0758C4C758A00052DE52DB414AA
:100BC300210564752D00E564B43C17055275640076
:100BD300E552B43C0D0544755200E544B418037561
:070BE3004400D0D0D0E03245
:03001300020F4297
:100F4200C0E0C0D00536E536B40803753600D0D00F
:030F5200D0E032BA
:0300000002087182
:0C087100787FE4F6D8FD7581690208B8B4
:100D0800BB010CE58229F582E5833AF583E02250A0
:100D180006E92582F8E622BBFE06E92582F8E222EA
:0D0D2800E58229F582E5833AF583E4932204
:10087D000209E1E493A3F8E493A34003F68001F2A7
:10088D0008DFF48029E493A3F85407240CC8C3337C
:10089D00C4540F4420C8834004F456800146F6DF4B
:1008AD00E4800B0102040810204080900CDBE47EF4
:1008BD00019360BCA3FF543F30E509541FFEE49340
:1008CD00A360010ECF54C025E060A840B8E493A307
:1008DD00FAE493A3F8E493A3C8C582C8CAC583CA32
:1008ED00F0A3C8C582C8CAC583CADFE9DEE780BEEA
:010D070000EB
:00000001FF
