:20000000020003787FE4F6D8FD75812002004A0202E9E493A3F8E493A34003F68001F20806
:20002000DFF48029E493A3F85407240CC8C333C4540F4420C8834004F456800146F6DFE405
:20004000800B0102040810204080900353E47E019360BCA3FF543F30E509541FFEE493A340
:2000600060010ECF54C025E060A840B8E493A3FAE493A3F8E493A3C8C582C8CAC583CAF046
:20008000A3C8C582C8CAC583CADFE9DEE780BEE508540FF50E900154932430F50AE50954DF
:2000A0000FC454F0FFE50854F0FEC4540F4FF50E75F064842430F50DE50E75F0648485F02A
:2000C0000BE50B75F00A842430F50CE50B75F00A84E5F02430F50BE50DB4300B750D20E569
:2000E0000CB43003750C207F4812035FAF0D1202B57F4912035FAF0C1202B57F4A12035FAF
:20010000AF0B1202B57F4C12035FAF0A0202B52077656C636F6D6520746F204A4C445A2028
:20012000002057454E44553A202020202E2020432000204453313842323020204552523074
:200140005220002020504C4541534520434845434B2020000001010203030404050606074B
:20016000080809090C12120C000000001201A9E4FF12035FE4FEEE90010F93FF6006120292
:20018000B50E80F27F4012035FE4FEEE90012193FF60061202B50E80F212031A1202977FDB
:2001A0004D12035FE4FF0202B57F0F1202317F381202381202977F381202381202977F38FC
:2001C0001202381202977F0C1202381202977F061202381F1202317F057E0002029B1201BD
:2001E000A9E4FF12035FE4FEEE90013293FF60061202B50E80F27F4012035FE4FEEE900197
:200200004393FF60061202B50E80F2221202547FCC1202CF7F441202CF1202547FCC120235
:20022000CF7FBE1202CF1202778F081202778F09227E0012029B7F0112032F40FBC2A2C216
:20024000A3C2A400008F8000000000D2A400000000C2A422120343C2927F5A7E0012034927
:20026000120343A29292007F647E00120349D292A200E4FE33FF22E4FC7D08C292ECC313EA
:20028000FCD2923092034304807F047E00120349DDE9AF047E00227F057E00EF1FAA0670CA
:2002A000011E4A600FE4FDEDC394FA50EE000000000D80F32212032F40FBD2A2C2A3C2A4A9
:2002C0008F8000000000D2A400000000C2A422AD077B08C292ED1392927F057E0012034902
:2002E000D292EDC313FDDBEB2212016C12020C12008F3000F71201DE1202541203022000FB
:20030000F722E4FD7F3C7E00120349B2930DBD64F3D2937F407E9C0203497F40120238E46B
:20032000FEEE90016493FF1202B50EBE08F322C2A2D2A3D2A400000000E580339201C2A4B8
:20034000A20122D2927F087E00EF1F70011E144E70F72202080000050A000000000000EFDF
:070360004480FF020238FF98
:00000001FF
