:0300030001145293
:10019600E4F50BF50CF50FF510F508F509C200C2EC
:1001A60090C291C292C293D2AF758911D2A9758CB1
:1001B600FE758A0CC2011201FE120213C28CE4F50E
:1001C600131201400513D3E513648094D240F21252
:0601D6000213C28C80E060
:1001FE00D201C3E514648094804009D201120140FB
:05020E00151480EE2232
:10014000D201E4F508F509F50D750E02F511E4F597
:1001500012E4F50A758CFE758A0CD28C7F02FE12B1
:100160000219E50AB40116D3E5099400E508648094
:1001700094805009850D08850E0912000E0512D3D2
:10018000E5126480948F40C90511D3E51164809411
:060190008740BBC28C2277
:03000B000201DC13
:1001DC00C0E0758CFE758A0C050CE50C7002050BE5
:1001EC00E50A700B750A01E509150970021508D0AE
:0201FC00E032EF
:06021300D28C7F107E2753
:0F021900E4F50BF50CC3E50C9FE50B9E40F722B7
:10000E00300009C290C291C292C29322E50F706273
:10001E00E510B40800505B90002CF82828730200FD
:10002E004402004A02005002005A02006002006AB6
:10003E00020074020078D290C291800AD290D291BE
:10004E008004C290D291C292C2938026C290D29165
:10005E008004C290C291D292C2938016C290C29175
:10006E00D292D293800CC2908002D290C291C29250
:10007E00D2932001190510E5107002050FD39407D5
:10008E00E50F64809480401DE4F50FF51022E51015
:10009E0015107002150FC3E50F648094805006751D
:0600AE000F00751007228F
:030000000200B447
:0C00B400787FE4F6D8FD7581200200FB87
:1000C000020196E493A3F8E493A34003F68001F2BF
:1000D00008DFF48029E493A3F85407240CC8C33341
:1000E000C4540F4420C8834004F456800146F6DF10
:1000F000E4800B0102040810204080900003E47E9D
:10010000019360BCA3FF543F30E509541FFEE49304
:10011000A360010ECF54C025E060A840B8E493A3CB
:10012000FAE493A3F8E493A3C8C582C8CAC583CAF6
:10013000F0A3C8C582C8CAC583CADFE9DEE780BEAE
:0100060000F9
:00000001FF
