:1008D800200053616E64696E67204F766572000070
:0F08E800010102030304040506060708080909B5
:10082600024200000522000000000002440000050C
:100836002B0000000000014100C101013600C1008B
:10084600C10202482000023F2000C186C187C105BF
:0B085600C189C108014B000258002DB1
:10097800758921D2AFE4F55175460CF547F54A2241
:0408F7007F647E009C
:1008FB00EF1FAA0670011E4A600FE4FDEDC394FAC8
:09090B0050EE000000000D80F325
:0109140022C0
:10048500E4FDFFFEFCD2B70000C2B50000D2B60005
:1004950000C2B60000D2B6C2B70000C2B60000D294
:1004A500B6D2B70000C2B6D2B70000A2B7E4334255
:1004B50007D2B60000C2B60000EF25E0FFEE33FE1E
:1004C500BD0706A2B7E43342070DBD08DEE4FDE42F
:1004D500A2B733D2B60000C2B60000C433333354DA
:1004E500804204EDC394075004ECC313FC0DBD0812
:0D04F500DED2B5C2B6D2B7EFFEAD04EDFF0A
:0105020022D6
:10050300E4FDFFFEFCD2B40000C2940000D29500CB
:1005130000C2950000D295C2B40000C2950000D27B
:1005230095D2B40000C295D2B40000A2B4E4334221
:1005330007D2950000C2950000EF25E0FFEE33FEE1
:10054300BD0706A2B4E43342070DBD08DEE4FDE4B3
:10055300A2B433D2950000C2950000C433333354A0
:10056300804204EDC394075004ECC313FC0DBD0893
:0D057300DED294C295D2B4EFFEAD04EDFFD0
:010580002258
:10058100B2867F327E001208FBB2867F327E001275
:1005910008FBB2861204858F42E542540FF526907E
:1005A10008E7932430F522E543540FC454F0FFE5E6
:1005B1004254F0FEC4540F4FF52675F06484243084
:1005C100F525E52675F0648485F023E52375F00AA9
:1005D100842430F524E52375F00A84E5F02430F510
:0205E1002322D3
:1005E300B2857F327E001208FBB2857F327E001215
:1005F30008FBB2851205038F44E544540FF52F9091
:1006030008E7932430F52BE545540FC454F0FFE578
:100613004454F0FEC4540F4FF52F75F06484243016
:10062300F52EE52F75F0648485F02CE52C75F00A22
:10063300842430F52DE52C75F00A84E5F02430F59B
:020643002C2267
:10093200E4F5E275E5018E398F3A8539E3853AE4CB
:0A09420075E64675E6B900AFE22243
:10094C0075E5028E398F3A8539E3853AE48DE27587
:07095C00E64675E6B9002232
:1009630075E5038E398F3A8539E3853AE475E646B2
:0509730075E6B9002249
:0C098800E4F5E7F5E5F5E6F5E3F5E4221B
:06088F008B088A09890AAA
:10089500E4FFFEAB08AA09A90A8F828E83120862BB
:1008A500600EF5993099FDC2990FBF00010E80E3E6
:0108B5002220
:0A099400854C32854D33854E342228
:1007A700E4FBFAF508F509D3E54094FFE53F942FFC
:1007B700502812099475E780E4FC74322CF8E6FDA2
:1007C700AF40AE3F12094C0540E5407002053F0BB4
:1007D700BB00010A0CBC03E28003E4FAFB020988B0
:10064500200240C3E54994FFE548942F503575E7EE
:1006550080E4FDAF49AE4812093274272DF8A6078C
:100665000549E549700205480DBD03E7E4F52AFB98
:100675007A00792712088F7BFF7A0879D812088FBC
:1006850002098820020BD2027BFF7A0879DA120868
:010695008FD5
:010696002241
:10036300D297D2B2120978759850758921758DE8A4
:10037300758BE8D299D28E75E780E4F541E5412586
:10038300E0FEE42400F553EE3420F552AF53FE12A1
:1003930009630541E541C3940840E2120988E4F585
:1003A30037F538F53DF53EF530F531C203C290C25D
:1003B30091C292C293D28AD2BAD2AAD2AF758921FC
:1003C300D2A9758CFE758A0CD2A0D2A1D2A2D2A3D7
:1003D300E546D394074006E5469413400712069773
:1003E300D2088002C2082005082008051201968061
:0603F300DF12001680DAA3
:10019600D297D2B21205811205E3C3E559942DE533
:1001A60058648094804006C280D2818017D3E55976
:1001B6009400E558648094805006D280C281800401
:1001C600D280D281E523252C24A0C313FF3395E0EA
:1001D600FEEF2430F555E43EF554E52D2524FFE4E5
:1001E60033CF24D0F557EF34FFF556E524252D24DB
:1001F600A0C3132430F54C85554DE522252B24A0AC
:10020600FFC3132430F54E1207A7120645C3E55760
:100216009431E55664809480401BE5591559700267
:100226001558C203D3E5599400E55864809480506C
:100236002AD2038026C3E5559439E5546480948018
:100246004025E559155970021558C203D3E559944E
:1002560000E558648094805002D203D2A7B2871278
:1002660008F71207658037C3E5559435E554648071
:1002760094804009C287C2A71208F780210559E574
:100286005970020558C203C3942DE55864809480C2
:100296004002D203D287B2A71208F712072320B270
:1002A60004C297800530B202D29720050302019A54
:0102B6002225
:10001600D297D2B2C203D2A0D2A1D2A2D2A3C3E5B2
:1000260059942DE558648094804006C280D2818020
:1000360017D3E5599400E558648094805006D28021
:10004600C2818004D280D28120096A30A00B20A10F
:100056000820A20520A302800C20A00F20A10C30AE
:10006600A20920A306C206D207804830A00B30A101
:100076000830A20520A302803620A00B30A108304C
:10008600A20520A302802830A00B30A10820A205DB
:1000960020A302801A20A00B30A10820A20520A3CD
:1000A60002800C20A00D20A10A20A20720A304C2D2
:1000B60007D206D20920062D30A02A20A12720A289
:1000C6002420A321D3E5599400E5586480948050F8
:1000D60004D2068002C206120765E5591559703228
:1000E600155802018020062C20A02920A12630A226
:1000F6002320A320C3E559942DE5586480948040BD
:1001060004D2068002C2061207230559E559700279
:100116000558806620071330A01030A10D30A20AC2
:1001260020A3071206DED207805020071320A01056
:1001360030A10D30A20A20A307120697D207803AF3
:1001460020071B30A01830A11520A21220A30F12E1
:100156000765E559155970021558D207801C200706
:100166001920A01630A11320A21020A30D120723D8
:100176000559E55970020558D20720B204C2978086
:100186000530B202D2971208F730050302001C228E
:030013000207E7FA
:1007E700C0E0C0D075D000C002C005C006C0071267
:1007F70008F7C20920A00D20A10A20A20730A304F0
:10080700C205800E20A00B20A10830A20530A3024C
:0F081700D205D007D006D005D002D0D0D0E03225
:10069700D204D3E559942DE558648094805037D21D
:1006A700041207230559E55970020558C3942DE52F
:1006B70058648094804006C280D28180D5D3E559A2
:1006C7009400E558648094805006D280C28180C22D
:0706D700D280D28180BC2219
:1006DE00C204C3E558648094804039C20412076591
:1006EE00E559155970021558C3E559942DE558640E
:1006FE008094804006C280D28180D7D3E559940081
:10070E00E558648094805006D280C28180C4D28025
:05071E00D28180BE2223
:10072300D204E4F530F531F53B753C02F54FE4F5C1
:1007330050120915E535B40110D3E5319400E530C5
:100743006480948050031202B70550D3E55064804F
:10075300948F40DD054FD3E54F6480949F40CFC213
:020763008C22E6
:10076500C204E4F530F531F53B753C02F54FE4F58F
:1007750050120915E535B40110D3E5319400E53083
:100785006480948050031202B70550D3E55064800D
:10079500948F40DD054FD3E54F6480949F40CFC2D1
:0207A5008C22A4
:03000B000208B632
:1008B600C0E0758CFE758A0C0538E5387002053780
:1008C600E535700B753501E531153170021530D0FF
:0208D600E0320E
:0E091500E4F535758CFE758A0CD28C7F02FEDF
:0F092300E4F537F538C3E5389FE5379E40F722F6
:0602B700853B30853C315F
:1002BD00300309C290C291C292C29322E53D706291
:1002CD00E53EB40800505B9002DBF828287302026B
:1002DD00F30202F90202FF02030902030F020319DE
:1002ED00020323020327D290C291800AD290D291A9
:1002FD008004C290D291C292C2938026C290D291B4
:10030D008004C290C291D292C2938016C290C291C3
:10031D00D292D293800CC2908002D290C291C2929E
:10032D00D293200419053EE53E7002053DD3940796
:10033D00E53D64809480401DE4F53DF53E22E53EAB
:10034D00153E7002153DC3E53D64809480500675E1
:06035D003D00753E072281
:030000000203F9FF
:0C03F900787FE4F6D8FD758159020440BD
:10086200BB010CE58229F582E5833AF583E022504B
:1008720006E92582F8E622BBFE06E92582F8E22295
:0D088200E58229F582E5833AF583E49322AF
:10040500020363E493A3F8E493A34003F68001F2A7
:1004150008DFF48029E493A3F85407240CC8C333F8
:10042500C4540F4420C8834004F456800146F6DFC7
:10043500E4800B0102040810204080900826E47E29
:10044500019360BCA3FF543F30E509541FFEE493BC
:10045500A360010ECF54C025E060A840B8E493A383
:10046500FAE493A3F8E493A3C8C582C8CAC583CAAE
:10047500F0A3C8C582C8CAC583CADFE9DEE780BE66
:010861000096
:00000001FF
