:10024E00200009000A002077656C636F6D652074CD
:10025E006F204A4C445A20002057454E44553A20B0
:10026E002020202E202043200020445331384232BB
:10027E00302020455252305220002020504C454113
:10028E00534520434845434B202000000101020303
:10029E0003040405060607080809090C12120C00CF
:1002AE00000000303132333435363738393A205089
:1002BE006F736974696F6E3A6D6F64656C342E007E
:1002CE0020206C6F6164696E672E2E2E2E2E2E20CE
:1002DE0000202053656E64696E672E2E2E2E2E2EF4
:1002EE002000202053746F702053656E64696E6712
:1002FE002E002020454550524F4D20726561647985
:10030E002020002020526573746172742E2E2E2EC2
:03031E002E2E0080
:10089000023A00000561000000000001400C023D2A
:1008A0002000013F0004410000000002212000C19F
:0708B00000013900013500D1
:1007A000E56075F00A8485F058E56075F00A84F517
:1007B00059E54E75F00A8485F05BE54E75F00A84C4
:1007C000F55CE54075F00A8485F05EE54075F00A59
:0407D00084F55F222B
:1009A300E4F5E275E5018E378F388537E38538E462
:0A09B30075E64675E6B900AFE222D2
:07096700F8E6FDAF3EAE3DD6
:10096E0075E5028E378F388537E38538E48DE2756D
:07097E00E64675E6B9002210
:10062C007BFF7A01F9F8AF44AE43AD42AC41120600
:10063C0074EF2401FFE43EFEE43DFDE43CFCE4FBEE
:10064C007A02F9F8120043E42FF50DEE3421F50C83
:03065C00AF0DFEE1
:10065F0075E5038E378F388537E38538E475E646C1
:05066F0075E6B9002250
:1008DD00753D20753E00E4F544F543F542F541754F
:0808ED00E780FF7E2012065F88
:0C08F500E4F5E7F5E5F5E6F5E3F5E422AF
:060863007BFF7A027950D0
:060869008B088A09890AD0
:10086F00E4FFFEAB08AA09A90A8F828E8312001635
:10087F00600EF5993099FDC2990FBF00010E80E30C
:01088F002246
:050A69007FFA00DFFD33
:010A6E002265
:10016000E4F508F509F50AF50BF50CF50D1205E0B7
:1001700075E780C3E5099408E50894005061745060
:100180002509120967053EE53E7002053D0509E5B2
:100190000970020508E4FAF9F8E5442401F544EA97
:1001A0003543F543E93542F542E83541F541E47B15
:1001B000FC0AAF44AE43AD42AC41120674AC00AD94
:1001C00001AE02AF03EC4D4E4F700312062CC3E597
:1001D0003E94DFE53D942F409A1208DD020173C37F
:1001E000E50B9408E50A94005061742D250B120963
:1001F00067053EE53E7002053D050BE50B70020507
:100200000AE4FAF9F8E5442401F544EA3543F543F4
:10021000E93542F542E83541F541E47BFC0AAF445B
:10022000AE43AD42AC41120674AC00AD01AE02AFBC
:1002300003EC4D4E4F700312062CC3E53E94DFE5F0
:0E0240003D942F409A1208DD0201DF0208F5FE
:1005E00085642D85632E85622F75302E856131756A
:1005F00032607533437534201207A0AF5F120A5B77
:100600008F50AF5E120A5B8F5175523AAF5C120A7F
:100610005B8F53AF5B120A5B8F5475553AAF59121B
:0C0620000A5B8F56AF58120A5B8F5722FE
:060A5B00EF9002B193FFD1
:010A61002272
:1003DE00E4FDFCC3E52294DFE521942F4006752150
:1003EE0020752200C3E52294DFE521942F400302FD
:1003FE00048175E780EDC394085018AF22AE211228
:10040E0009A374452DF8A6070D0522E52270E60511
:10041E002180E2E4F54DFB7A0079451208697BFFF5
:10042E007A02794E120869ECC394085018AF22AEC6
:10043E00211209A374232CF8A6070C0522E52270BD
:10044E00E6052180E2E4F52BFB7A00792312086998
:10045E00120863120863053FE53F75F00384E5F06B
:10046E0070097BFF7A027952120869E53FB40903DD
:03047E00E4F53F63
:010481002258
:1006F500D297D2B6D2B7E4F53920B60F7F05FE12F0
:10070500098920B60375390130B6FD20B70C1209E9
:100715008520B70375390230B7FD20970C1209857E
:0C0725002097037539033097FDAF39228F
:1007D400E4FF120A62E4F508E5089002BD93FF60A5
:1007E400071209BD050880F07F40120A62E4F5088B
:1007F400E5089002CE93FF60071209BD050880F05A
:0108040022D1
:100321001207D47F587E021209891206F58F3CE527
:100331003C640170571203DE1206F58F3CE53C6404
:10034100037024752120F5227F40120A62E4F54FE3
:10035100E54F90031193FF60071209BD054F80F02F
:100361007F647E001209897F40120A62E4F54FE53D
:100371004F9002DF93FF60071209BD054F80F0E542
:100381003C6402604FE53520E0AB8048E53C640207
:10039100702A1206F58F3C7F40120A62E4F54FE5A0
:1003A1004F9002F093FF60071209BD054F80F0E501
:1003B1003C6401601FE53520E0D880187F40120AB7
:1003C10062E4F54FE54F90030093FF60071209BD0A
:0D03D100054F80F0E53530E00302032B22DC
:040985007F057E006C
:10098900EF1FAA0670011E4A600FE4FDEDC394FA39
:0909990050EE000000000D80F397
:0109A2002232
:100A3400C2A2D2A3D2A400000000E580339202C275
:030A4400A4A20267
:010A4700228C
:070901007E001209897F014D
:10090800120A3440FBC2A2C2A3C2A400008F800016
:0C091800000000D2A400000000C2A422D5
:1009BD00120A3440FBD2A2C2A3C2A48F8000000051
:0A09CD0000D2A400000000C2A42222
:10076B007F0F1209017F381209081209857F381291
:10077B0009081209857F381209081209857F0C12A6
:10078B0009081209857F061209081F1209017F0546
:05079B007E0002098947
:070A6200EF4480FF020908C8
:100A1F007F40120908E4FEEE9002A993FF1209BD70
:040A2F000EBE08F3FC
:010A330022A0
:06000300D2947F087E008C
:0A000900EF1F70011E144E70F72265
:10092400120003C2947F5A7E00120009120003A22F
:100934009492017F647E00120009D294A201E4FE25
:0309440033FF225C
:10094700E4FC7D08C294ECC313FCD29430940343B7
:0F09570004807F047E00120009DDE9AF047E00FA
:01096600226E
:0209D700AD076A
:1009D9007B08C294ED1392947F057E00120009D220
:0709E90094EDC313FDDBEBED
:0109F00022E4
:1008B8001209247FCC1209D77F441209D7120924C0
:1008C8007FCC1209D77FBE1209D71209478F3A1277
:0508D80009478F3B22DF
:10050E00E53A540FF565900299932430F561E53B79
:10051E00540FC454F0FFE53A54F0FEC4540F4FF597
:10052E006575F064842430F564E56575F064848542
:10053E00F062E56275F00A842430F563E56275F0C9
:10054E000A84E5F02430F562E564B4300B7564205E
:10055E00E563B430037563207F48120A62AF6412FC
:10056E0009BD7F49120A62AF631209BD7F4A120AA2
:10057E0062AF621209BD7F4C120A62AF610209BD01
:1009F100E4FD7F3C7E00120009B2930DBD64F3D289
:080A0100937F407E9C02000976
:1006B80012076BE4FF120A62E4FEEE90025493FF05
:1006C80060061209BD0E80F27F40120A62E4FEEE57
:1006D80090026693FF60061209BD0E80F2120A1F8F
:0D06E8001209857F4D120A62E4FF0209BD70
:1008350012076BE4FF120A62E4FEEE90027793FF63
:1008450060061209BD0E80F27F40120A62E4FEEED8
:0D08550090028893FF60061209BD0E80F22C
:010862002273
:10073100E4FF120A62E4FEEE90025493FF60061297
:1007410009BD0E80F27F40120A62E4FEEE9002665D
:1007510093FF60061209BD0E80F2120A1F1209856D
:0A0761007F4D120A62E4FF0209BD99
:10058E001207311208B812050EE563C394334025E5
:10059E007536C8B293120A691536E536D3940050F3
:1005AE00F27536C8B293120A69120A691536E53623
:1005BE00D3940050EF120160E53520E0033001C303
:1005CE001208351209241209F1E53520E003200145
:0205DE00F22207
:100A0900758901758C4CE4F58AD28AD2BAD2AAD2F8
:060A1900AFD2A9D28C222D
:100805001206B8120A0975985075892075884075C1
:100815008DE8758BE8D299D28E75E7807F00120836
:10082500F0E53520E00512058E80F612032180F1F2
:03001300020A4896
:100A4800C0E0C0D00535E535B40803753500D0D011
:030A5800D0E032B9
:0300000002048275
:0C048200787FE4F6D8FD7581650204C99E
:10001600BB010CE58229F582E5833AF583E022509F
:1000260006E92582F8E622BBFE06E92582F8E222E9
:0D003600E58229F582E5833AF583E4932203
:10004300E88FF0A4CC8BF0A42CFCE98EF0A42CFC5C
:100053008AF0EDA42CFCEA8EF0A4CDA8F08BF0A4DA
:100063002DCC3825F0FDE98FF0A42CCD35F0FCEB39
:100073008EF0A4FEA9F0EB8FF0A4CFC5F02ECD39FE
:0F008300FEE43CFCEAA42DCE35F0FDE43CFC226B
:10067400C2D5E830E70FB2D5E4C39BFBE49AFAE4B1
:1006840099F9E498F8EC30E717B2D51206AA1200EB
:10069400CEE4C39BFBE49AFAE499F9E498F8800366
:1006A4001200CE30D50DE4C39FFFE49EFEE49DFD11
:0406B400E49CFC22A4
:10048E00020805E493A3F8E493A34003F68001F277
:10049E0008DFF48029E493A3F85407240CC8C3336F
:1004AE00C4540F4420C8834004F456800146F6DF3E
:1004BE00E4800B0102040810204080900890E47E36
:1004CE00019360BCA3FF543F30E509541FFEE49333
:1004DE00A360010ECF54C025E060A840B8E493A3FA
:1004EE00FAE493A3F8E493A3C8C582C8CAC583CA25
:1004FE00F0A3C8C582C8CAC583CADFE9DEE780BEDD
:0108B7000040
:1000920075F008758200EF2FFFEE33FECD33CDCC25
:1000A20033CCC58233C5829BED9AEC99E5829840A8
:1000B2000CF582EE9BFEED9AFDEC99FC0FD5F0D685
:1000C200E4CEFBE4CDFAE4CCF9A88222B800C1B9AF
:1000D2000059BA002DEC8BF084CFCECDFCE5F0CBED
:1000E200F97818EF2FFFEE33FEED33FDEC33FCEB26
:1000F20033FB10D703994004EB99FB0FD8E5E4F9E1
:10010200FA227818EF2FFFEE33FEED33FDEC33FCCD
:10011200C933C910D7059BE99A4007EC9BFCE99AC1
:10012200F90FD8E0E4C9FAE4CCFB2275F010EF2F06
:10013200FFEE33FEED33FDCC33CCC833C810D70706
:100142009BEC9AE899400AED9BFDEC9AFCE899F841
:0E0152000FD5F0DAE4CDFBE4CCFAE4C8F922D4
:00000001FF
