:0F047000C183C184C182C185011100021400B48F
:10045600EF1FAA0670011E4A600FE4FDEDC394FA71
:0904660050EE000000000D80F3CF
:01046F00226A
:10038400E4F50BF50CF50FF510F508F509C200C2FC
:1003940090C291C292C293D28AD2BAD2AAD2AF7573
:1003A4008911D2A9758CFE758A0CD2A0D2A1D2A2D1
:0703B400D2A312001680FB2A
:10001600D2A0D2A1D2A2D2A320056A30A00B20A1E1
:100026000820A20520A302800C20A00F20A10C30DE
:10003600A20920A306C203D204804830A00B30A137
:100046000830A20520A302803620A00B30A108307C
:10005600A20520A302802830A00B30A10820A2050B
:1000660020A302801A20A00B30A10820A20520A3FD
:1000760002800C20A00D20A10A20A20720A304C202
:1000860004D203D20520032D30A02A20A12720A2C6
:100096002420A321D3E5159400E5146480948050B0
:1000A60004D2038002C203120342E515151570320D
:1000B600151402015020032C20A02920A12630A2CD
:1000C6002320A320C3E51594B4E5146480948040EE
:1000D60004D2038002C2031203000515E51570025F
:1000E6000514806620041330A01030A10D30A20A3A
:1000F60020A30712043BD204805020041320A01032
:1001060030A10D30A20A20A3071203FFD204803AC1
:1001160020041B30A01830A11520A21220A30F1214
:100126000342E515151570021514D204801C20042F
:100136001920A01630A11320A21020A30D1203002F
:100146000515E51570020514D2047F647E001204BD
:080156005630020302001E22D4
:0300130002029650
:10029600C0E0C0F0C083C082C0D075D000C000C02E
:1002A60001C002C003C004C005C006C0077F507E5F
:1002B60000120456C20520A01320A11020A20D3062
:1002C600A30A0511E511B40503751101E51175F0D1
:1002D600021203DDAFF0BF0104D2028002C202D0D7
:1002E60007D006D005D004D003D002D001D000D06C
:0A02F600D0D082D083D0F0D0E032E7
:1003FF00D201D3E51594B4E51464809480500FD2E4
:0F040F00011203000515E51570E8051480E422BD
:10043B00C201C3E51464809480400FC201120342D1
:0B044B00E515151570EC151480E82273
:10030000D201E4F508F509F50D750E02F512E4F5D4
:100310001312041EE50AB40110D3E5099400E508A0
:1003200064809480500312015E0513D3E51364804A
:10033000948F40DD0512D3E5126480948740CFC2CC
:020340008C220D
:10034200C201E4F508F509F50D750E02F512E4F5A2
:100352001312041EE50AB40110D3E5099400E5085E
:1003620064809480500312015E0513D3E513648008
:10037200948F40DD0512D3E5126480948740CFC28A
:020382008C22CB
:03000B000203BB32
:1003BB00C0E0758CFE758A0C050CE50C7002050B04
:1003CB00E50A700B750A01E509150970021508D0CD
:0203DB00E0320E
:0E041E00E4F50A758CFE758A0CD28C7F02FE06
:0F042C00E4F50BF50CC3E50C9FE50B9E40F722A2
:06015E00850D08850E0965
:10016400300009C290C291C292C29322E50F70621C
:10017400E510B40800505B900182F828287302014E
:100184009A0201A00201A60201B00201B60201C056
:100194000201CA0201CED290C291800AD290D291B9
:1001A4008004C290D291C292C2938026C290D2910E
:1001B4008004C290C291D292C2938016C290C2911E
:1001C400D292D293800CC2908002D290C291C292F9
:1001D400D2932001190510E5107002050FD394077E
:1001E400E50F64809480401DE4F50FF51022E510BE
:1001F40015107002150FC3E50F64809480500675C6
:060204000F007510072237
:0300000002020AEF
:0C020A00787FE4F6D8FD758120020251D7
:1003DD00C2D530F707B2D563F0FF05F030E70CB2A8
:1003ED00D5F4048463F0FF05F080018430D502F468
:0203FD000422D8
:10021600020384E493A3F8E493A34003F68001F277
:1002260008DFF48029E493A3F85407240CC8C333E9
:10023600C4540F4420C8834004F456800146F6DFB8
:10024600E4800B0102040810204080900470E47ED4
:10025600019360BCA3FF543F30E509541FFEE493AD
:10026600A360010ECF54C025E060A840B8E493A374
:10027600FAE493A3F8E493A3C8C582C8CAC583CA9F
:10028600F0A3C8C582C8CAC583CADFE9DEE780BE57
:01047F00007C
:00000001FF
