:1008DB0053797374656D2E73657475700054696DFF
:1008EB0065004461746500436C6F636B004C616D14
:1008FB0070005265736574004578697400536574B4
:10090B000073656300436C6F636B536574004F4EEC
:10091B00004F4646002077656C636F6D6520746FE2
:10092B00204A4C445A20002057454E44553A20202B
:10093B0020202E20204320002044533138423230D7
:10094B002020455252305220002020504C4541531C
:10095B004520434845434B2020000001010203037F
:10096B00040405060607080809090C12120C0000FE
:02097B0000007A
:10104800071000101929030406010900020C00000A
:071058000517000000000075
:100C3400D293C296121016120CCD758901758C3C94
:100C4400758AB0D28AC2AAD2BAD2AFD28CD2A91231
:100C5400000A120D18120F06120A09E50975F003AD
:100C640084AFF0EF64016008EF640260033000E5D4
:0D0C7400120E0C120F4D1211412000F7223C
:10082F0020902912111E209023121141C2967FC1D0
:10083F00121149EFC4540F75F00AA4FFC0077FC10E
:10084F00121149EF540FFED0E02EF50AD20212100A
:10085F0060200226121141C296120A897FC112111D
:10086F0049EFC4540F75F00AA4FFC0077FC11211DE
:10087F0049EF540FFED0E02EF50A209606E50A70D8
:10088F0002D2967FC3121149BF012B7FC5121149A6
:10089F00C0077F85121149AE07D007EEB507177F46
:1008AF00C7121149C0077F83121149AE07D007EE57
:1008BF00B507031210ED1204F4E50975F00384AFC8
:0C08CF00F0EF60076402600302082F22B3
:01000A0022D3
:040F6C007F057E007F
:100F7000EF1FAA0670011E4A600FE4FDEDC394FA4C
:090F800050EE000000000D80F3AA
:010F89002245
:100FA8008F1E1210DBC2A2C2A3C2A40000851E803D
:0D0FB80000000000D2A400000000C2A4222E
:100D5B007F0F7E00120F707F01120FA87F38120FCA
:100D6B00A8120F6C7F38120FA8120F6C7F38120F5E
:100D7B00A8120F6C7F0C120FA8120F6C7F06120FAC
:100D8B00A8120F6C7F01120FA87F057E00020F7057
:07000300EF4480FF020FA88B
:100FC5007F40120FA8E4F51DE51D90097593FF12EA
:0B0FD50010B5051DE51DC3940840ED9C
:010FE00022EE
:0610FE00D2927F087E0083
:0A110400EF1F70011E144E70F72259
:100F4D001210FEC2927F5A7E001211041210FEA2E0
:0F0F5D009292007F647E00121104D292A20022B1
:100F8A00E4FC7D08C292ECC313FCD2923092034374
:0D0F9A0004807F047E00121104DDE9AF0425
:010FA7002227
:020FFC00AD073F
:100FFE007B08C292ED1392927F057E00121104D2ED
:07100E0092EDC313FDDBEBC3
:0110150022B8
:100F0600120F4D7FCC120FFC7F44120FFC120F4DB7
:100F16007FCC120FFC7FBE120FFC120F8A8F0C12B1
:050F26000F8A8F0D226F
:100A0900E50C540FF51B900965932430F517E50D96
:100A1900540FC454F0FFE50C54F0FEC4540F4FF5C5
:100A29001B75F064842430F51AE51B75F064848520
:100A3900F018E51875F00A842430F519E51875F0F1
:100A49000A84E5F02430F518E51AB4300B751A203C
:100A5900E519B430037519207F48120003AF1A1243
:100A690010B57F49120003AF191210B57F4A120061
:100A790003AF181210B57F4C120003AF170210B55F
:100D1800120D5BE4FF120003E4F51CE51C900920AA
:100D280093FF60071210B5051C80F07F4012000386
:100D3800E4F51CE51C90093293FF60071210B50515
:100D48001C80F0120FC5120F6C7F4D120003E4FFD8
:030D58000210B5D1
:100E0C00120D5BE4FF120003E4F51CE51C90094392
:100E1C0093FF60071210B5051C80F07F4012000391
:100E2C00E4F51CE51C90095493FF60071210B505FE
:030E3C001C80F027
:010E3F002290
:05113C00C201E4F50B07
:08114100C29312111ED2932289
:1010ED0020010DC29312111E12111E12111ED29348
:0110FD0022D0
:1010600020921312111E20920D3092FD121141C2D6
:0710700001E4F50BC20222AE
:100A8900750801E5086078120D9B20911712111E57
:100A990020910E12113CAF081508EFB40103750837
:100AA900063091FD20901712111E20900E12113C54
:100AB900AF080508EFB406037508013090FDD202AE
:100AC9001210602002BD121141E50824FE601514C0
:100AD900601714601914601B14601E240570A41299
:100AE9000E91809F120EB8809A120DD48095120E25
:100AF900DF80901210A2020A8CE4F508020A8C2207
:100E9100750E06E508B4011ED20212106020020E82
:100EA100121141AF0E050EEFB40903750E06120BB8
:070EB10009120D9B80DD22F8
:100EB800750E01E508B4021ED20212106020020E5F
:100EC800121141AF0E050EEFB40503750E01120B9A
:070ED80009120D9B80DD22D1
:100DD400750E0CE5086403702ED202121060200216
:100DE4001E1211417FC3121149EF540F7006F50E04
:100DF4000508800BAF0E050EEFB40F03750E0C1231
:080E04000B09120D9B80CC22AA
:100EDF00750E0AE508B4041ED20212106020020E2D
:100EEF00121141AF0E050EEFB40B03750E0A120B64
:070EFF0009120D9B80DD22AA
:1010A2007B007A007910120E407DA57F9012112DDF
:0310B2000508220C
:100B090020913112111E20912812113CE50E640921
:100B19006011E50E6405600BE50E640B6005E50EDA
:100B2900B40F070508E4F50E80077D01AF0E120723
:100B3900423091FD20903112111E20902812113C53
:100B4900E50E64096011E50E6405600BE50E640BA2
:100B59006005E50EB40F070508E4F50E8007E4FD0E
:090B6900AF0E1207423090FD228C
:03000B00020E6979
:100E6900C0E0C0D075D000C007758C3C758AB0AFA2
:100E79000B050BEFB40A0A750B00B201200102152C
:080E89000AD007D0D0D0E032FE
:020742008D2701
:10074400BF010975288C752A63E4F52BBF0209756E
:100754002888752A0C752B01BF0309752886752A0C
:100764001F752B01BF040975288A752A07752B018B
:10077400BF0609752884752A17E4F52BBF07097588
:100784002882752A3BE4F52BBF0809752880752A51
:100794003BE4F52BBF0A097528C0752A3BE4F52B09
:1007A400BF0C097528C2752A01E4F52BBF0D097524
:1007B40028C4752A17E4F52BBF0E097528C6752AB7
:1007C4003BE4F52BE52804FF121149EFC4540F75DF
:1007D400F00AA4FFC007E52804FF121149EF540FE3
:1007E400FED0E02EF529E52770040529800215299D
:1007F400E529D3952A4003852B29E529C3952B5058
:1008040003852A29E4FD7F8E12112DE52975F00A4E
:1008140084C454F0FFE52975F00A84EF25F0FDAF98
:0B0824002812112D7D807F8E02112D07
:100D9B00E508B407005031900DA9F8282873020D0F
:100DAB00BE020DC1020DC4020DC7020DCA020DCD4C
:100DBB00020DD00204F40201E602037302001602D4
:090DCB000651020B72120BD92231
:1004F400E4FD120C847B20E4FD7F0D120F317B2080
:10050400E4FD7F04120F317B207D017F04120F3143
:100514007B207D017F0F120F317B2F120F2D7B2F3C
:100524007D017F0A120F317B2F7D017F0D120F3168
:100534007A087BED7D01E4FF120C8930010D7B3AD2
:10054400E4FD7F07120F317B3A800B7B20E4FD7FB3
:1005540007120F317B20E4FD7F0A120F317F8D12C9
:100564001149EFC4540F2430FB7D017F05120F3174
:100574007F8D121149EF540F2430FB7D017F061249
:100584000F317F89121149EFC4540F2430FB7D01D0
:100594007F08120F317F89121149EF540F2430FB69
:1005A4007D017F09120F317F87121149EFC4540F67
:1005B4002430FB7D017F0B120F317F87121149EF2D
:1005C400540F2430FB7D017F0C120F317F8B1211ED
:1005D40049EF540F2430FB7D017F0E120F317F85CC
:1005E400121149EFC4540F2430FBE4FD7F05120FB0
:1005F400317F85121149EF540F2430FBE4FD7F064F
:10060400120F317F83121149EFC4540F2430FBE4DD
:10061400FD7F08120F317F83121149EF540F2430EC
:10062400FBE4FD7F09120F317F81121149EFC4549D
:100634000F2430FBE4FD7F0B120F317F811211492F
:0D064400EF540F2430FBE4FD7F0C020F315A
:1001E6007B20E4FDFF120F317B20E4FD7F01120F1F
:1001F600317A087BDBE4FD7F02120C89E50E706321
:100206007B207D017F09120F317B207D017F041247
:100216000F317B207D017F0F120F317A087BED7D38
:10022600017F05120C897A087BF27D017F0A120C88
:10023600893001247B207D01E4FF120F317B207D74
:10024600017F01120F317B207D017F02120F317B6E
:10025600207D017F030203647A087BE87D01E4FFC9
:1002660002036F7B3A7D017F03120F317B3A7D01DA
:100276007F06120F317B207D017F09120F317B2013
:100286007D017F0A120F317B207D01E4FF120F31C1
:10029600E50EB4061030010D7B207D017F01120FA3
:1002A600317B20801E7F85121149EFC4540F243004
:1002B600FB7D017F01120F317F85121149EF540F2B
:1002C6002430FB7D017F02120F31E50EB40710309A
:1002D600010D7B207D017F04120F317B20801E7F64
:1002E60083121149EFC4540F2430FB7D017F0412A1
:1002F6000F317F83121149EF540F2430FB7D017FAC
:1003060005120F31E50EB4080A300107120F2B7BD8
:1003160020801A7F81121149EFC4540F2430FB123A
:100326000F2D7F81121149EF540F2430FB7D017F81
:1003360008120F31E50E640970273001247B207DF9
:10034600017F0B120F317B207D017F0C120F317B59
:10035600207D017F0D120F317B207D017F0E020F64
:0D036600317A097B037D017F0B120C892287
:10037300E50E70557B207D017F09120F317B207DB7
:10038300017F04120F317B207D017F0F120F311289
:100393000C817A087BF27D017F0A120C8930011EE1
:1003A3007B207D017F05120F317B207D017F0612AB
:1003B3000F31120F2B7B207D017F080204E57A08A1
:1003C3007BED7D017F050204F07B207D01E4FF12BC
:1003D3000F317B207D017F0B120F317B2F7D017F3E
:1003E30003120F317B2F7D017F06120F317B2F7D8F
:1003F300017F09120F31E50EB4011030010D7B208E
:100403007D017F01120F317B20801E7F8D121149E8
:10041300EFC4540F2430FB7D017F01120F317F8D18
:10042300121149EF540F2430FB7D017F02120F316B
:10043300E50EB4021030010D7B207D017F04120F05
:10044300317B20801E7F89121149EFC4540F243061
:10045300FB7D017F04120F317F89121149EF540F85
:100463002430FB7D017F05120F31E50EB4030A3002
:100473000107120F2B7B20801A7F87121149EFC4CB
:10048300540F2430FB120F2D7F87121149EF540FA5
:100493002430FB7D017F08120F31E50EB4040730D1
:1004A30001047B20800B7F8B121149EF540F243002
:1004B300FB7D017F0A120F31E50E640570273001C1
:1004C300247B207D017F0C120F317B207D017F0D6A
:1004D300120F317B207D017F0E120F317B207D01B6
:1004E3007F0F020F317A097B037D017F0C120C8988
:0104F30022E6
:10001600E50E70607B207D017F09120F317B207D0C
:10002600017F04120F317B207D017F0F120F3112E9
:100036000C817A087BED7D017F05120C8930012D3C
:100046007B207D017F0A120F317B207D017F0B1201
:100056000F317B207D017F0C120F317B207D017FCC
:100066000D120F317B207D017F0E0201D77A087BAE
:10007600F2020110E50E640C60030201177A097B97
:10008600107D01FF120C897B207D017F08120F3144
:100096007B207D017F0D120F317B207D017F0E12AB
:1000A6000F313001247B207D017F0A120F317B2026
:1000B6007D017F0B120F317B207D017F0C120F31EA
:1000C6007B207D017F0D0201D77FC3121149EF54BA
:1000D6000F70067A097B1C80317B207D017F091217
:1000E6000F317B207D017F0C120F317B207D017F3C
:1000F6000D120F317B207D017F0E120F317B207D8B
:10010600017F0F120F317A097B197D017F0A0201E7
:10011600E27A087BF27D01E4FF120C897B3A7D01CD
:100126007F08120F317B207D017F05120F317B2066
:100136007D017F0B120F31E50EB40D1030010D7BE2
:10014600207D017F06120F317B20801E7FC5121194
:1001560049EFC4540F2430FB7D017F06120F317F17
:10016600C5121149EF540F2430FB120F2DE50EB4C2
:100176000E1030010D7B207D017F09120F317B208F
:10018600801E7FC7121149EFC4540F2430FB7D0136
:100196007F09120F317FC7121149EF540F2430FB2C
:1001A6007D017F0A120F31E50E640F70273001249E
:1001B6007B207D017F0C120F317B207D017F0D128C
:1001C6000F317B207D017F0E120F317B207D017F59
:1001D6000F020F317A097B037D017F0C120C8922F5
:10065100E50E70637B207D017F0A120F317B207DC7
:10066100017F0B120F317B207D017F04120F317A44
:10067100087BFD7D017F05120C897A097B037D01D1
:100681007F0C120C893001247B207D01E4FF120FC5
:10069100317B207D017F01120F317B207D017F02A3
:1006A100120F317B207D017F0302073E7A087BF820
:1006B1007D01E4FF020C897A087BF87D01E4FF12D9
:1006C1000C897A097B087D017F04120C897A097BE8
:1006D1000C7D017F09120C897A097B037D017F0C56
:1006E100120C89E50EB40A0A300107120F2B7B2088
:1006F100801A7FC1121149EFC4540F2430FB120F2D
:100701002D7FC1121149EF540F2430FB7D017F0869
:10071100120F31E50E640B70273001247B207D011F
:100721007F0C120F317B207D017F0D120F317B2059
:100731007D017F0E120F317B207D017F0F120F3162
:010741002295
:100B72007B207D017F04120F317B207D017F0A12D1
:100B82000F317B207D017F0B120F317A087BF87DBC
:100B920001E4FF120C897A097B037D017F0C120CA0
:100BA200893001277B207D017F05120F317B207D5B
:100BB200017F06120F31120F2B7B207D017F08125D
:100BC2000F317B207D017F09020F317A087BFD7D89
:070BD200017F05120C8922CE
:100BD9007B207D017F0A120F317B207D017F0B1263
:100BE9000F317A087BF87D01E4FF120C897A087BC2
:100BF900FD7D017F05120C893001247B207D017F59
:100C09000C120F317B207D017F0D120F317B207D6E
:100C1900017F0E120F317B207D017F0F020F317A88
:0B0C2900097B037D017F0C120C892267
:1010B5008F1E1210DB851E80D2A2C2A3C2A4C2A4B9
:0310C500D2A42290
:040FE1007D017C0012
:100FE5008F1CED4C60031210DB851C80C2A2C2A3CE
:070FF500C2A4C2A4D2A42291
:1010DB00C2A2D2A3C2A4C2A4D2A4E58020E7FBAFD4
:0210EB00802261
:100CCD00E4F580FDFC7F38120FE512111EE4FDFCEA
:100CDD007F38120FE512111EE4FDFC7F38120FE56F
:100CED0012111E7F38120FE17F08120FE17D017C7A
:100CFD00007F01120FE57D017C007F06120FE57D5F
:0B0D0D00017C007F0C120FE502111E9C
:060F2B007B207D017F0721
:100F31008B1F53050153070FED6003430740430720
:0C0F410080E4FDFC120FE5AF1F0210B5AC
:080C81007D01E47A087BE8FF25
:080C89008F218D228A238B24A8
:100C9100A9247BFF12108D8F2553220153210FE5CB
:100CA10021D3940F5025E4F526E526C39525501B45
:100CB100E5242526F582E43523F583E493FBAD2273
:0B0CC100AF21120F310521052680DE57
:010CCC002205
:0E111E007FB07E15EF1FAC0670011E4C70F600
:01112C0022A0
:101016007D05AC051DEC60107E1C7F65EF1FAA06E2
:0810260070011E4A60EC80F429
:01102E00229F
:06107700C2B2C297D2B222
:0F107D00EF7F08A2E092A7D297C297C313DFF4C8
:01108C002241
:0F110E007F08C313A2A792E7D297C297DFF4FF1F
:01111D0022AF
:0F112D00AE05121077AF0612107DD297C2B22214
:0A11490012107712110ED297C2B2F5
:011153002279
:100E4000752C80E4FD7F8E12112D7C0712102FFD72
:100E5000AF2C12112D740129F9E43AFA052C052C56
:090E6000DCEA7D807F8E02112D79
:030013000210C810
:1010C800C0E0C0D00509E509B40903750900D0D00E
:0310D800D0E03233
:0300000002097D75
:0C097D00787FE4F6D8FD75812C0209C4D7
:10102F00BB010689828A83E0225002E722BBFE02BF
:09103F00E32289828A83E49322F2
:10108D00E4FFFE12102F600C0FEF70010E09E970D6
:05109D00F20A80EF22C1
:10098900020C34E493A3F8E493A34003F68001F244
:1009990008DFF48029E493A3F85407240CC8C3336F
:1009A900C4540F4420C8834004F456800146F6DF3E
:1009B900E4800B0102040810204080901048E47E76
:1009C900019360BCA3FF543F30E509541FFEE49333
:1009D900A360010ECF54C025E060A840B8E493A3FA
:1009E900FAE493A3F8E493A3C8C582C8CAC583CA25
:1009F900F0A3C8C582C8CAC583CADFE9DEE780BEDD
:01105F000090
:00000001FF
