:10010F002048617070792065766572796461792015
:10011F00212020002057454E44553A202020202EE4
:10012F0020204320002044533138423230202045D4
:10013F005252305220002020504C4541534520430D
:10014F004845434B2020000001010203030404052E
:0F015F00060607080809090C12120C0000000020
:0E035500020B0000050D0000000000010A0070
:040299007F057E005F
:10029D00EF1FAA0670011E4A600FE4FDEDC394FA2C
:0902AD0050EE000000000D80F38A
:0102B6002225
:10033100C2A2D2A3D2A400000000E580339201C280
:03034100A4A20172
:010344002296
:070233007E0012029D7F0115
:10023A0012033140FBC2A2C2A3C2A400008F8000F5
:0C024A00000000D2A400000000C2A422AA
:1002B70012033140FBD2A2C2A3C2A48F8000000068
:0A02C70000D2A400000000C2A4222F
:1001AB007F0F1202337F3812023A1202997F3812F4
:1001BB00023A1202997F3812023A1202997F0C12FC
:1001CB00023A1202997F0612023A1F1202337F057E
:0501DB007E0002029D00
:07036400EF4480FF02023AA2
:10031C007F4012023AE4FEEE90016693FF1202B7A0
:04032C000EBE08F306
:0103300022AA
:06034500D2927F087E0049
:0A034B00EF1F70011E144E70F72220
:10025600120345C2927F5A7E0012034B120345A237
:100266009292007F647E0012034BD292A200E4FEBB
:0302760033FF2231
:10027900E4FC7D08C292ECC313FCD2923092034392
:0F02890004807F047E0012034BDDE9AF047E008A
:010298002243
:0202D100AD0777
:1002D3007B08C292ED1392927F057E0012034BD2EC
:0702E30092EDC313FDDBEBFC
:0102EA0022F1
:10020E001202567FCC1202D17F441202D112025634
:10021E007FCC1202D17FBE1202D11202798F0B1245
:05022E0002798F0C2293
:10008F00E50B540FF511900156932430F50DE50C47
:10009F00540FC454F0FFE50B54F0FEC4540F4FF54A
:1000AF001175F064842430F510E51175F0648485C2
:1000BF00F00EE50E75F00A842430F50FE50E75F09D
:1000CF000A84E5F02430F50EE510B4300B751020DE
:1000DF00E50FB43003750F207F48120364AF101281
:1000EF0002B77F49120364AF0F1202B77F4A1203A0
:1000FF0064AF0E1202B77F4C120364AF0D0202B74A
:10030400E4FD7F3C7E0012034BB2930DBD64F3D237
:08031400937F407E9C02034B25
:10016E001201ABE4FF120364E4FEEE90010F93FF65
:10017E0060061202B70E80F27F40120364E4FEEEB8
:10018E0090012393FF60061202B70E80F212031C39
:0D019E001202997F4D120364E4FF0202B7C4
:1001E0001201ABE4FF120364E4FEEE90013493FFCE
:1001F00060061202B70E80F27F40120364E4FEEE46
:0D02000090014593FF60061202B70E80F2D8
:01020D0022CE
:1002EB0012016E12020E12008F3000F71201E01293
:0902FB0002561203042000F72250
:03000000020003F8
:0C000300787FE4F6D8FD75812002004AE9
:10000F000202EBE493A3F8E493A34003F68001F21A
:10001F0008DFF48029E493A3F85407240CC8C333F2
:10002F00C4540F4420C8834004F456800146F6DFC1
:10003F00E4800B0102040810204080900355E47EF9
:10004F00019360BCA3FF543F30E509541FFEE493B6
:10005F00A360010ECF54C025E060A840B8E493A37D
:10006F00FAE493A3F8E493A3C8C582C8CAC583CAA8
:10007F00F0A3C8C582C8CAC583CADFE9DEE780BE60
:010363000099
:00000001FF
