:10011800E4F50AF50BF50EF50FF508F509C200C26E
:1001280090C291C292C293D2AF758911D2A9758C2F
:10013800FE758A2CD28CC201F50C120153750C0085
:0B014800750D01750C0012015380F8CA
:03000B000200B43C
:1000B400C0E0C0F0C083C082C0D075D000C000C012
:1000C40001C002C003C004C005C006C007758CFE91
:1000D400758A2C050BE50B7002050AE509150970F4
:1000E400021508D3E5099400E5086480948050095A
:1000F400850C08850D0912000ED007D006D005D056
:1001040004D003D002D001D000D0D0D082D083D08C
:04011400F0D0E03215
:07015300750D027F107E27ED
:0F015A00E4F50AF50BC3E50B9FE50A9E40F7227B
:10000E00300009C290C291C292C29322E50E706274
:10001E00E50FB40800505B90002CF82828730200FE
:10002E004402004A02005002005A02006002006AB6
:10003E00020074020078D290C291800AD290D291BE
:10004E008004C290D291C292C2938026C290D29165
:10005E008004C290C291D292C2938016C290C29175
:10006E00D292D293800CC2908002D290C291C29250
:10007E00D293200119050FE50F7002050ED39407D8
:10008E00E50E64809480401DE4F50EF50F22E50F19
:10009E00150F7002150EC3E50E6480948050067520
:0600AE000E00750F072291
:0300000002016991
:0C016900787FE4F6D8FD758120020118B3
:00000001FF
