:1000B400E4F50BF50CF50FF510F508F509C200C2CF
:1000C40090C291C292C293D2AF758911D2A9758C94
:1000D400FE758A0CC201C201E4F51312010C05136A
:1000E400D3E513648094D240F212017CC28CD20115
:1000F400E4F51312010C0513D3E513648094D24084
:08010400F212017CC28C80CED6
:10010C00E4F508F509F50D750E02F511E4F512E4A8
:10011C00F50A758CFE758A0CD28C7F02FE12018258
:10012C00E50AB40110D3E5099400E50864809480D5
:10013C00500312000E0512D3E5126480948F40CF49
:0E014C000511D3E5116480948740C1C28C2256
:03000B0002015A95
:10015A00C0E0758CFE758A0C050CE50C7002050B67
:10016A00E50A700B750A01E509150970021508D030
:02017A00E03271
:06017C00D28C7F107E27EB
:0F018200E4F50BF50CC3E50C9FE50B9E40F7224F
:10000E00300009C290C291C292C29322E50F706273
:10001E00E510B40800505B90002CF82828730200FD
:10002E004402004A02005002005A02006002006AB6
:10003E00020074020078D290C291800AD290D291BE
:10004E008004C290D291C292C2938026C290D29165
:10005E008004C290C291D292C2938016C290C29175
:10006E00D292D293800CC2908002D290C291C29250
:10007E00D2932001190510E5107002050FD39407D5
:10008E00E50F64809480401DE4F50FF51022E51015
:10009E0015107002150FC3E50F648094805006751D
:0600AE000F00751007228F
:0300000002019169
:0C019100787FE4F6D8FD7581200200B4F0
:00000001FF
