:1002720020486170707920657665727964617920B1
:1002820000202020204F70656E2055502020202015
:100292002000202020436C6F736520446F776E200E
:1002A200202000202020536C6F776C79205570201D
:1002B20020202000202020536C6F776C7920446F1F
:1002C200776E202000202057726F6E6720436F6D7B
:1002D2006D616E642000202053656C6620436F6E52
:1002E20074726F6C20200020202020204D6F7665D4
:1002F2002055702020202000202020204D6F766580
:1003020020446F776E2020200020204E6F772C73C0
:100312006574207A65726F202000416C6C6F775390
:10032200656C66636F6E74726F6C00506F73697484
:0C033200696F6E3A6D6F64656C332E00CD
:0304B0000109003F
:04044D007F057E00A9
:10045100EF1FAA0670011E4A600FE4FDEDC394FA76
:0904610050EE000000000D80F3D4
:01046A00226F
:10048500C2A2D2A3D2A400000000E580339200C22C
:03049500A4A2001E
:010498002241
:07042A007E001204517F0166
:1004310012048540FBC2A2C2A3C2A400008F8000A7
:0C044100000000D2A400000000C2A422B1
:10046B0012048540FBD2A2C2A3C2A48F800000005D
:0A047B0000D2A400000000C2A42279
:1003CA007F0F12042A7F3812043112044D7F38122B
:1003DA00043112044D7F3812043112044D7F0C127D
:1003EA00043112044D7F061204311F12042A7F05BC
:0503FA007E0002045129
:08049900D291C292C2957F408E
:0704A100EF4480FF0204316B
:10015500D2A0D2A1D2A5D2A6D2B0D2B1D2B4D2B5B4
:10016500D2B6D2B7D297D2A730B04B30B14830B45F
:100175004530B54230A03F30A13C30A53930A636D8
:1001850030B63330B73030972D30A72A12044D30B2
:10019500B02430B12130B41E30B51B30A01830A1C9
:1001A5001530A51230A60F30B60C30B709309706BA
:1001B50030A703E4F50920B00C12044D20B00375F7
:1001C500090130B0FD20B10C12044D20B1037509B1
:1001D5000230B1FD20B40C12044D20B4037509039F
:1001E50030B4FD20B50C12044D20B503750904305B
:1001F500B5FD20A00C12044D20A00375090530A003
:10020500FD20A10C12044D20A10375090630A1FDA6
:1002150020A50C12044D20A50375090730A5FD2066
:10022500A60C12044D20A60375090830A6FD20B6BC
:100235000C12044D20B60375090930B6FD20B70C24
:1002450012044D20B70375090A30B7FD20970C122B
:10025500044D20970375090B3097FD20A70C120458
:0D0265004D20A70375090C30A7FDAF09223D
:1003FF00E4FF1204A1E4FEEE90032D93FF600612BA
:10040F00046B0E80F27F401204A1E4FEEE900272A4
:0A041F0093FF600612046B0E80F2DA
:0104290022B0
:100003001203FF7FE87E03120451D290D291D29261
:10001300D2951201558F08C296E50870187F4012D9
:1000230004A1E4FCEC9002D893FF7003020149128F
:10003300046B0C80EFE5086401701CD290D291D25E
:100043009212049DE4FCEC90028393FF700302017F
:100053004912046B0C80EFE5086402701CC290D255
:1000630091D29212049DE4FCEC90029493FF7003EE
:1000730002014912046B0C80EFE50864037018D287
:1000830090120499E4FCEC9002A593FF7003020123
:100093004912046B0C80EFE50864047018C29012D7
:1000A3000499E4FCEC9002B693FF70030201491239
:1000B300046B0C80EFE50864097017D290C29112AB
:1000C300049BE4FCEC9002E993FF607A12046B0C4E
:1000D30080F2E508640A7019C290C291D2921204A8
:1000E3009DE4FCEC9002FA93FF605B12046B0C80BE
:1000F300F2E508640B7017C290C29112049BE4FCF2
:10010300EC90030B93FF603E12046B0C80F2E50846
:10011300640C701DC290C291C292D2957F401204AA
:10012300A1E4FCEC90031C93FF601B12046B0C8096
:10013300F27F401204A1E4FCEC9002C793FF600637
:1001430012046B0C80F27F2C7E01120451D29602B2
:02015300001595
:0804A8001203CA12000380FBDD
:0300000002033EBA
:0C033E00787FE4F6D8FD7581200203856D
:10034A000204A8E493A3F8E493A34003F68001F21D
:10035A0008DFF48029E493A3F85407240CC8C333B4
:10036A00C4540F4420C8834004F456800146F6DF83
:10037A00E4800B01020408102040809004B0E47E5F
:10038A00019360BCA3FF543F30E509541FFEE49378
:10039A00A360010ECF54C025E060A840B8E493A33F
:1003AA00FAE493A3F8E493A3C8C582C8CAC583CA6A
:1003BA00F0A3C8C582C8CAC583CADFE9DEE780BE22
:0104B3000048
:00000001FF
