:10010A00E4F50BF50CF50FF510F508F509C200C278
:10011A0090C291C292C293D2AF758911D2A9758C3D
:0B012A00FE758A0CC2011200B480FBBD
:1000B400D201E4F508F509F50D750E02F511E4F524
:1000C40012E4F50A758CFE758A0CD28C7F02FE123E
:1000D4000157E50AB40116D3E5099400E5086480E4
:1000E40094805009850D08850E0912000E0512D35F
:1000F400E5126480948F40C90511D3E5116480949E
:060104008740BBC28C2203
:03000B00020135BA
:10013500C0E0758CFE758A0C050CE50C7002050B8C
:10014500E50A700B750A01E509150970021508D055
:02015500E03296
:0F015700E4F50BF50CC3E50C9FE50B9E40F7227A
:10000E00300009C290C291C292C29322E50F706273
:10001E00E510B40800505B90002CF82828730200FD
:10002E004402004A02005002005A02006002006AB6
:10003E00020074020078D290C291800AD290D291BE
:10004E008004C290D291C292C2938026C290D29165
:10005E008004C290C291D292C2938016C290C29175
:10006E00D292D293800CC2908002D290C291C29250
:10007E00D2932001190510E5107002050FD39407D5
:10008E00E50F64809480401DE4F50FF51022E51015
:10009E0015107002150FC3E50F648094805006751D
:0600AE000F00751007228F
:0300000002016694
:0C016600787FE4F6D8FD75812002010AC4
:00000001FF
