:1000160020000D0A000A0053616E64696E67204F66
:1000260076657200506F736974696F6E3A6D6F64AE
:10003600656C312E002057454E44553A202020202D
:100046002E202043200020445331384232302020D5
:10005600455252305220002020504C4541534520F5
:10006600434845434B202000506F736974696F6E97
:100076003A6D6F64656C322E00506F736974696FE8
:100086006E3A6D6F64656C332E00506F73697469D8
:100096006F6E3A6D6F64656C342E00204861707027
:1000A60079206576657279646179200020202020A8
:1000B6004F70656E205550202020202000202020E3
:1000C600436C6F736520446F776E202020002020DC
:1000D60020536C6F776C79205570202020200020EB
:1000E6002020536C6F776C7920446F776E20200048
:1000F600202057726F6E6720436F6D6D616E6420AE
:1001060000202053656C6620436F6E74726F6C20FE
:10011600200020202020204D6F766520557020205D
:10012600202000202020204D6F766520446F776EBA
:100136002020200020204E6F772C736574207A656E
:10014600726F202000416C6C6F7753656C66636F2D
:100156006E74726F6C004E6F2053656C6620636F11
:100166006E74726F6C0020206C6F6164696E672E0E
:100176002E2E2E2E2E2000202053656E64696E676B
:100186002E2E2E2E2E2E2000202053746F702053DC
:10019600656E64696E672E002020454550524F4DAE
:1001A6002052454144592020002020726573746115
:1001B60072742E2E2E2E2E2E00434C4F434B2100B2
:1001C600303132333435363738393A2000010102BE
:1001D6000303040405060607080809090C12120C95
:0401E6000000000015
:100C3500013D00014300C102014B00024E200001AD
:100C4500500004520000000002222000C1000144AF
:100C55000002472200C101024C2200014900013E69
:0C0C6500000245000005740000000000C3
:040F8C007F057E005F
:100F9000EF1FAA0670011E4A600FE4FDEDC394FA2C
:090FA00050EE000000000D80F38A
:010FA9002225
:10104600C2A2D2A3D2A400000000E580339204C25B
:03105600A4A2044D
:011059002274
:070F26007E00120F907F0115
:100F2D0012104640FBC2A2C2A3C2A400008F8000D3
:0C0F3D00000000D2A400000000C2A422AA
:030FC800EF93FFA5
:100FCB0012104640FBD2A2C2A3C2A48F8000000025
:0A0FDB0000D2A400000000C2A4220E
:100D1F007F0F120F267F38120F2D120F8C7F381274
:100D2F000F2D120F8C7F38120F2D120F8C7F0C127C
:100D3F000F2D120F8C7F06120F2D1F120F267F05FE
:050D4F007E00020F9080
:08107D00D291C292C2957F409E
:07108500EF4480FF020F2D74
:101031007F40120F2DE4FEEE9001E293FF120FCBE1
:041041000EBE08F3E4
:011045002288
:06106D00D2947F087E0012
:0A107300EF1F70011E144E70F722EB
:100F490012106DC2947F5A7E0012107312106DA296
:100F59009492037F647E00121073D294A203E4FE7C
:030F690033FF2231
:100F6C00E4FC7D08C294ECC313FCD294309403438C
:0F0F7C0004807F047E00121073DDE9AF047E0055
:010F8B002243
:020FE500AD0756
:100FE7007B08C294ED1392947F057E00121073D292
:070FF70094EDC313FDDBEBD9
:010FFE0022D0
:100E9300120F497FCC120FE57F44120FE5120F4961
:100EA3007FCC120FE57FBE120FE5120F6C8F451238
:050EB3000F6C8F4622C8
:1009A100E545540FF5789001D2932430F574E5466E
:1009B100540FC454F0FFE54554F0FEC4540F4FF5F5
:1009C1007875F064842430F577E57875F064848572
:1009D100F075E57575F00A842430F576E57575F0E6
:1009E1000A84E5F02430F575E577B4300B7577208E
:1009F100E576B430037576207F48121085AF771203
:100A01000FCB7F49121085AF76120FCB7F4A1210A0
:100A110085AF75120FCB7F4C121085AF74020FCBCF
:10101900E4FD7F3C7E00121073B2930DBD64F3D2E0
:08102900937F407E9C021073CE
:100BF800120D1FE4FF121085E4FEEE90002A93FF09
:100C08006006120FCB0E80F27F40121085E4FEEED4
:100C180090003B93FF6006120FCB0E80F21210314A
:0D0C2800120F8C7F4D121085E4FF020FCBE0
:100D8800120D1FE4FF121085E4FEEE90004C93FF55
:100D98006006120FCB0E80F27F40121085E4FEEE43
:0D0DA80090005D93FF6006120FCB0E80F2ED
:010DB500221B
:100D5400E57375F00A8485F069E57375F00A84F526
:100D64006AE55F75F00A8485F06CE55F75F00A84C6
:100D7400F56DE55175F00A8485F06FE55175F00A5B
:040D840084F5702260
:100BB800120F2DAF70EF9001C693FF120FCBAF6FDE
:100BC800120FC8AF6E120FC8AF6DEF93FF120FCBA5
:100BD800AF6CEF93FF120FCBAF6BEF93FF120FCBFE
:100BE800AF6AEF93FF120FCBAF69EF93FF020FCB02
:10037100E4F54BD2A0D2A1D2A5D2A6D2B0D2B1D2AD
:10038100B4D2B5D2B6D2B7D297D2A730B04E30B12F
:100391004B30B44830B54530A04230A13F30A53C88
:1003A10030A63930B63630B73330973030A72D7F8D
:1003B10005FE120F9030B02430B12130B41E30B59B
:1003C1001B30A01830A11530A51230A60F30B60C85
:1003D10030B70930970630A703E4F54B20B00C1273
:1003E1000F8C20B003754B0130B0FD20B10C120F02
:1003F1008C20B103754B0230B1FD20B40C120F8C6F
:1004010020B403754B0330B4FD20B50C120F8C20C2
:10041100B503754B0430B5FD20A00C120F8C20A044
:1004210003754B0530A0FD20A10C120F8C20A103F8
:10043100754B0630A1FD20A50C120F8C20A503756C
:100441004B0730A5FD20A60C120F8C20A603754B7F
:100451000830A6FD20B60C120F8C20B603754B098F
:1004610030B6FD20B70C120F8C20B703754B0A3044
:10047100B7FD20970C120F8C209703754B0B30970B
:10048100FD20A70C120F8C20A703754B0C30A7FD84
:03049100AF4B224C
:10049400E4F54BD2A0D2A1D2A5D2A6D2B0C2B1D299
:1004A400B4D2B5D2B6D2B7D297D2A730B04830B40E
:1004B4004530B54230A03F30A13C30A53930A63696
:1004C40030B63330B73030972D30A72A7F05FE126F
:1004D4000F9030B02130B41E30B51B30A01830A1BD
:1004E4001530A51230A60F30B60C30B70930970678
:1004F40030A703E4F54B20B00C120F8C20B0037529
:100504004B0130B0FD20B40C120F8C20B403754B9A
:100514000330B4FD20B50C120F8C20B503754B04C9
:1005240030B5FD20A00C120F8C20A003754B0530B4
:10053400A0FD20A10C120F8C20A103754B0630A145
:10054400FD20A50C120F8C20A503754B0730A5FDCB
:1005540020A60C120F8C20A603754B0830A6FD2094
:10056400B60C120F8C20B603754B0930B6FD20B7BC
:100574000C120F8C20B703754B0A30B7FD20970C73
:10058400120F8C209703754B0B3097FD20A70C128C
:0E0594000F8C20A703754B0C30A7FDAF4B2238
:10068D00120494AE07EE24FA6033146041146054E2
:10069D002403600302072E2002137521C1C2AF7F10
:1006AD00C1120F2D7F0F120F2DD20280747FC01239
:1006BD000F2D7F0C120F2DC202D2AF80643002615C
:1006CD00E521B4C1057521C7805274FD800F30023C
:1006DD0050E521B4C7057521C1804174032521F56D
:1006ED0021FF803A30023AE521B4C1020551E551AE
:1006FD00B41803E4F551E521B4C402055FE55FB418
:10070D003C03E4F55FE521B4C7020573E573B43C22
:10071D0003E4F573120D547FC0120BB8AF21120F05
:10072D002DEE600DE59054F064F060057590F0804D
:01073D00F3C8
:01073E002298
:100CAE00E4FF121085E4FEEE90002A93FF60061218
:100CBE000FCB0E80F27F40121085E4FEEE90003BCB
:100CCE0093FF6006120FCB0E80F2121031120F8CB2
:0A0CDE007F4D121085E4FF020FCBDA
:100DB600E4FEFF121085EE90006E93FF6006120FA0
:100DC600CB0E80F27FC9120F2DE4FEEE9001BF9389
:0D0DD600FF120FCB0EBE06F37FC0020F2DE3
:100EB800758921758C4CE4F58AD28AD2BAD2AAD225
:100EC800AFD2A9D28CF52D75510CF55FF573756B02
:050ED8000A756E0A22FC
:100B7200C2B1D2A0D2B2120DB612068D200228E561
:100B82002DC3940A5008756B0A756E0A8006756B40
:100B92000B756E0BE52D7005120D548005E52DB415
:100BA2000A057FC0120BB8E53D5403FF60076402DB
:060BB2006003BF03C42232
:051096007FFA00DFFD00
:01109B002232
:10088800120CAEC2A0D2B2D2B1120E931209A1E5D7
:1008980076C394334025753FC8B293121096153F1E
:1008A800E53FD3940050F2753FC8B29312109612E8
:1008B8001096153FE53FD3940050EFE53D5403FFF4
:1008C8006401603CEF64026037EF64036032120732
:1008D8003F1207E7E53D5403FF64016023EF64021C
:1008E800601EEF64036019120A7DE53D5403FF643E
:1008F80001600DEF64026008EF6403600330038950
:0D090800120D88120F491210192003F7225A
:100E3D00E4FF121085E4FEEE90007F93FF60061232
:100E4D000FCB0E80F27F40121085E4FEEE9000A1D4
:0A0E5D0093FF6006120FCB0E80F227
:010E67002268
:1001EA00C2B2D2B1D2A0120E3D7FE87E03120F90A6
:1001FA001203718F40C296E54070187F4012108535
:10020A00E4FCEC90010793FF7003020354120FCB36
:10021A000C80EFE5406401701CD290D291D2921208
:10022A001081E4FCEC9000B293FF700302035412B5
:10023A000FCB0C80EFE5406402701CC290D291D2C1
:10024A0092121081E4FCEC9000C393FF7003020346
:10025A0054120FCB0C80EFE54064037018D2901251
:10026A00107DE4FCEC9000D493FF70030203541257
:10027A000FCB0C80EFE54064047018C29012107D19
:10028A00E4FCEC9000E593FF7003020354120FCBD9
:10029A000C80EFE54064087020C290C291D292D2DD
:1002AA00957F40121085E4FCEC90015C93FF70038B
:1002BA00020354120FCB0C80EFE54064097017D289
:1002CA0090C29112107FE4FCEC90011893FF607ABF
:1002DA00120FCB0C80F2E540640A7019C290C291E9
:1002EA00D292121081E4FCEC90012993FF605B1218
:1002FA000FCB0C80F2E540640B7017C290C29112CA
:10030A00107FE4FCEC90013A93FF603E120FCB0C95
:10031A0080F2E540640C701DC290C291C292D295DF
:10032A007F40121085E4FCEC90014B93FF601B1296
:10033A000FCB0C80F27F40121085E4FCEC9000F6A3
:10034A0093FF6006120FCB0C80F27FC87E00120F5B
:10035A0090D296E53D5403FF6401600AEF6007649A
:06036A000360030201FA2A
:01037000226A
:100FFF00E4F5E275E5018E418F428541E38542E4D8
:0A100F0075E64675E6B900AFE2226F
:070FAA00F8E6FDAF4FAE4E6B
:100FB10075E5028E418F428541E38542E48DE275FC
:070FC100E64675E6B90022C7
:100EDD0025E0FEE42400F572EE3420F571AF72FECC
:100EED0075E5038E418F428541E38542E475E64603
:050EFD0075E6B90022BA
:100F0200754E20754F00E4F555F554F553F55275BD
:080F1200E780FF7E20120EEDC6
:0C0F1A00E4F5E7F5E5F5E6F5E3F5E42283
:060DE3007BFF7A00791687
:060DE9008B088A09890A4B
:100DEF00E4FFFEAB08AA09A90A8F828E83120E10A8
:100DFF00600EF5993099FDC2990FBF00010E80E387
:010E0F0022C0
:10073F00E4F508F509F50AF50B120B2675E780C3EA
:10074F00E5099408E5089400504074612509120FDB
:10075F00AA054FE54F7002054E0509E50970020520
:10076F0008E4FAF9F8E5552401F555EA3554F5543E
:10077F00E93553F553E83552F552D3E54F94FFE57C
:10078F004E942140BA120F0280B5C3E50B9408E5D1
:10079F000A94005040742E250B120FAA054FE54FF7
:1007AF007002054E050BE50B7002050AE4FAF9F825
:1007BF00E5552401F555EA3554F554E93553F5530C
:1007CF00E83552F552D3E54F94FFE54E942140BAE8
:0807DF00120F0280B5020F1A8F
:100B260085772E85762F85753075312E85743275CD
:100B36003360753443753520120D54AF70120003BF
:100B46008F61AF6F1200038F6275633AAF6D12004B
:100B5600038F64AF6C1200038F6575663AAF6A1235
:0C0B660000038F67AF691200038F682244
:06000300EF9001C693FF1F
:0100090022D4
:1007E700E4FDFCD3E52394FFE5229421400675221E
:1007F70020752300C3E52394FFE5229421400302DB
:10080700088775E780EDC394085018AF23AE22120E
:100817000FFF74562DF8A6070D0523E52370E6058F
:100827002280E2E4F55EFB7A007956120DE9120D9B
:10083700E3ECC394085018AF23AE22120FFF7424C1
:100847002CF8A6070C0523E52370E6052280E2E4D1
:10085700F52CFB7A007924120DE97BFF7A007918D1
:10086700120DE90550E55075F00384E5F070097B3A
:10087700FF7A00791B120DE9E550B40903E4F5503E
:01088700224E
:100C7200D297D2B6D2B7E4F54420B60F7F05FE1262
:100C82000F9020B60375440130B6FD20B70C120F49
:100C92008C20B70375440230B7FD20970C120F8CDD
:0C0CA2002097037544033097FDAF4422F7
:100E6800E4FF121085E4FEEE90009093FF600612F6
:100E78000FCB0E80F27F40121085E4FEEE90016CDD
:0A0E880093FF6006120FCB0E80F2FC
:010E9200223D
:0A108C0085763A85753B85743C2299
:100A7D00E4FBFAFDFCE53E70160DED120EDD0DBD2D
:100A8D0000010CED64084C70F1120F1A753E01D384
:100A9D00E54894FFE547942F502812108C75E78098
:100AAD00E4FC743A2CF8E6FDAF48AE47120FB105E1
:100ABD0048E548700205470BBB00010A0CBC03E278
:080ACD008003E4FAFB020F1A9A
:100AD50020013FC3E54D94FFE54C942F503475E755
:100AE50080E4FDAF4DAE4C120FFF74362DF8A6070E
:100AF500054DE54D7002054C0DBD03E7E4F539FBE9
:100B05007A007936120DE9120DE3120C728F4A0242
:100B15000F1A20010BD2017BFF7A00791D120DE916
:010B250022AD
:1005A200120E687FE87E03120F90754C22754D0083
:1005B200754722754800120C728F4AE54A64017031
:1005C20064120AD5120C728F4AE54A6403702675CA
:1005D2004C22F54DC2017F40121085E4F560E560C2
:1005E2009001AF93FF6007120FCB056080F07F2C64
:1005F2007E01120F907F40121085E4F560E5609055
:10060200017D93FF6007120FCB056080F0E54A641D
:10061200026064E53D5403FF6401605BEF6058646F
:1006220002709E8052E54A64027034120C728F4A44
:100632007F40121085E4F560E56090018E93FF60C3
:1006420007120FCB056080F0E54A64016029E53DA1
:100652005403FF64016020EF601DBF02CE80187F4B
:1006620040121085E4F560E56090019E93FF6007FB
:10067200120FCB056080F0E53D5403FF6401600A70
:0B068200EF6007640260030205B8226D
:100A2100120BF8120EB8759850758921D28E758DFA
:100A3100E8758BE8D299D28E75E780E4F549E549EE
:100A4100120EDD0549E549C3940840F2120F1AE57B
:100A51003D5403700512088880F5E53D5403FCBC44
:100A61000105120B7280E8BC020DD290D291D29294
:0C0A7100D2951201EA80D81205A280D3B1
:03000B00020CE8FC
:100CE800C0E0C0D0758C4C758A00052DE52DB41474
:100CF800210573752D00E573B43C17055F75730006
:100D0800E55FB43C0D0551755F00E551B4180375F6
:070D18005100D0D0D0E03201
:0300130002105A7E
:10105A00C0E0C0D0053DE53DB40803753D00D0D0E1
:03106A00D0E032A1
:03000000020915DD
:0C091500787FE4F6D8FD75817802095C5B
:100E1000BB010CE58229F582E5833AF583E0225097
:100E200006E92582F8E622BBFE06E92582F8E222E1
:0D0E3000E58229F582E5833AF583E49322FB
:10092100020A21E493A3F8E493A34003F68001F2C1
:1009310008DFF48029E493A3F85407240CC8C333D7
:10094100C4540F4420C8834004F456800146F6DFA6
:10095100E4800B0102040810204080900C35E47EF5
:10096100019360BCA3FF543F30E509541FFEE4939B
:10097100A360010ECF54C025E060A840B8E493A362
:10098100FAE493A3F8E493A3C8C582C8CAC583CA8D
:10099100F0A3C8C582C8CAC583CADFE9DEE780BE45
:010C71000082
:00000001FF
