:10008B00EF1FAA0670011E4A600FE4FDEDC394FA40
:09009B0050EE000000000D80F39E
:0100A4002239
:1000A500758911758D94E4F58BD2AFD2ABD28EF5EF
:0900B5000B75080CF509F50A228F
:100055001200A5E509D394015006D2A7B287800BFB
:10006500E509D39402500DD287B2A77F287E0012EE
:10007500008B80DFE509D3940350D8B2867F287EB4
:060085000012008B80CD8B
:03001B0002001EC2
:10001E00C0E0C0D0758D94758B00050BE50BB41444
:10002E0021050A750B00E50AB43C170509750A008F
:10003E00E509B43C0D0508750900E508B41803750B
:07004E000800D0D0D0E03221
:03000000020003F8
:0C000300787FE4F6D8FD75810B020055F3
:00000001FF
