:10019E000001010203030404050606070808090905
:0E01AE00010D00020E00000508000000000018
:10016B00EF1FAA0670011E4A600FE4FDEDC394FA5F
:09017B0050EE000000000D80F3BD
:010184002258
:10008F00E4FDFFFEFCD2960000C2940000D2950062
:10009F0000C2950000D295C2960000C2950000D212
:1000AF0095D2960000C295D2960000A296E43342F4
:1000BF0007D2950000C2950000EF25E0FFEE33FE5A
:1000CF00BD0706A296E43342070DBD08DEE4FDE44A
:1000DF00A29633D2950000C2950000C43333335437
:1000EF00804204EDC394075004ECC313FC0DBD080C
:0D00FF00DED294C295D296EFFEAD04EDFF67
:01010C0022D0
:10010D0012008F8F0EE50E540FF50C90019E932467
:10011D0030F508E50F540FC454F0FFE50E54F0FE12
:10012D00C4540F4FF50C75F064842430F50BE50CB9
:10013D0075F0648485F009E50975F00A842430F5BD
:10014D000AE50975F00A84E5F02430F509E50BB4EC
:0E015D00300B750B20E50AB43003750A202222
:1001850012010DE509C39437400BB2847F647E00EC
:0901950012016B80EBC28480E7CB
:03000000020003F8
:0C000300787FE4F6D8FD75811002004AF9
:10000F00020185E493A3F8E493A34003F68001F281
:10001F0008DFF48029E493A3F85407240CC8C333F2
:10002F00C4540F4420C8834004F456800146F6DFC1
:10003F00E4800B01020408102040809001AEE47EA2
:10004F00019360BCA3FF543F30E509541FFEE493B6
:10005F00A360010ECF54C025E060A840B8E493A37D
:10006F00FAE493A3F8E493A3C8C582C8CAC583CAA8
:10007F00F0A3C8C582C8CAC583CADFE9DEE780BE60
:0101BC000042
:00000001FF
